{
  "_format": "hh-sol-artifact-1",
  "contractName": "HexamAuction",
  "sourceName": "contracts/HexaAuction.sol",
  "abi": [
    {
      "inputs": [
        {
          "internalType": "address payable",
          "name": "_platformFeeRecipient",
          "type": "address"
        },
        {
          "internalType": "address",
          "name": "_admin",
          "type": "address"
        }
      ],
      "stateMutability": "nonpayable",
      "type": "constructor"
    },
    {
      "anonymous": false,
      "inputs": [
        {
          "indexed": true,
          "internalType": "address",
          "name": "nftAddress",
          "type": "address"
        },
        {
          "indexed": true,
          "internalType": "uint256",
          "name": "tokenId",
          "type": "uint256"
        }
      ],
      "name": "AuctionCancelled",
      "type": "event"
    },
    {
      "anonymous": false,
      "inputs": [
        {
          "indexed": true,
          "internalType": "address",
          "name": "nftAddress",
          "type": "address"
        },
        {
          "indexed": true,
          "internalType": "uint256",
          "name": "tokenId",
          "type": "uint256"
        }
      ],
      "name": "AuctionCreated",
      "type": "event"
    },
    {
      "anonymous": false,
      "inputs": [
        {
          "indexed": false,
          "internalType": "address",
          "name": "oldOwner",
          "type": "address"
        },
        {
          "indexed": true,
          "internalType": "address",
          "name": "nftAddress",
          "type": "address"
        },
        {
          "indexed": true,
          "internalType": "uint256",
          "name": "tokenId",
          "type": "uint256"
        },
        {
          "indexed": true,
          "internalType": "address",
          "name": "winner",
          "type": "address"
        },
        {
          "indexed": false,
          "internalType": "uint256",
          "name": "winningBid",
          "type": "uint256"
        }
      ],
      "name": "AuctionResulted",
      "type": "event"
    },
    {
      "anonymous": false,
      "inputs": [
        {
          "indexed": true,
          "internalType": "address",
          "name": "nftAddress",
          "type": "address"
        },
        {
          "indexed": true,
          "internalType": "uint256",
          "name": "tokenId",
          "type": "uint256"
        },
        {
          "indexed": true,
          "internalType": "address",
          "name": "bidder",
          "type": "address"
        },
        {
          "indexed": false,
          "internalType": "uint256",
          "name": "bid",
          "type": "uint256"
        }
      ],
      "name": "BidPlaced",
      "type": "event"
    },
    {
      "anonymous": false,
      "inputs": [
        {
          "indexed": true,
          "internalType": "address",
          "name": "nftAddress",
          "type": "address"
        },
        {
          "indexed": true,
          "internalType": "uint256",
          "name": "tokenId",
          "type": "uint256"
        },
        {
          "indexed": true,
          "internalType": "address",
          "name": "bidder",
          "type": "address"
        },
        {
          "indexed": false,
          "internalType": "uint256",
          "name": "bid",
          "type": "uint256"
        }
      ],
      "name": "BidRefunded",
      "type": "event"
    },
    {
      "anonymous": false,
      "inputs": [
        {
          "indexed": true,
          "internalType": "address",
          "name": "nftAddress",
          "type": "address"
        },
        {
          "indexed": true,
          "internalType": "uint256",
          "name": "tokenId",
          "type": "uint256"
        },
        {
          "indexed": true,
          "internalType": "address",
          "name": "bidder",
          "type": "address"
        },
        {
          "indexed": false,
          "internalType": "uint256",
          "name": "bid",
          "type": "uint256"
        }
      ],
      "name": "BidWithdrawn",
      "type": "event"
    },
    {
      "anonymous": false,
      "inputs": [
        {
          "indexed": false,
          "internalType": "bool",
          "name": "isPaused",
          "type": "bool"
        }
      ],
      "name": "PauseToggled",
      "type": "event"
    },
    {
      "anonymous": false,
      "inputs": [
        {
          "indexed": true,
          "internalType": "address",
          "name": "nftAddress",
          "type": "address"
        },
        {
          "indexed": true,
          "internalType": "uint256",
          "name": "tokenId",
          "type": "uint256"
        },
        {
          "indexed": false,
          "internalType": "uint256",
          "name": "endTime",
          "type": "uint256"
        }
      ],
      "name": "UpdateAuctionEndTime",
      "type": "event"
    },
    {
      "anonymous": false,
      "inputs": [
        {
          "indexed": true,
          "internalType": "address",
          "name": "nftAddress",
          "type": "address"
        },
        {
          "indexed": true,
          "internalType": "uint256",
          "name": "tokenId",
          "type": "uint256"
        },
        {
          "indexed": false,
          "internalType": "uint256",
          "name": "reservePrice",
          "type": "uint256"
        }
      ],
      "name": "UpdateAuctionReservePrice",
      "type": "event"
    },
    {
      "anonymous": false,
      "inputs": [
        {
          "indexed": true,
          "internalType": "address",
          "name": "nftAddress",
          "type": "address"
        },
        {
          "indexed": true,
          "internalType": "uint256",
          "name": "tokenId",
          "type": "uint256"
        },
        {
          "indexed": false,
          "internalType": "uint256",
          "name": "startTime",
          "type": "uint256"
        }
      ],
      "name": "UpdateAuctionStartTime",
      "type": "event"
    },
    {
      "anonymous": false,
      "inputs": [
        {
          "indexed": false,
          "internalType": "uint256",
          "name": "bidWithdrawalLockTime",
          "type": "uint256"
        }
      ],
      "name": "UpdateBidWithdrawalLockTime",
      "type": "event"
    },
    {
      "anonymous": false,
      "inputs": [
        {
          "indexed": false,
          "internalType": "uint256",
          "name": "minBidIncrement",
          "type": "uint256"
        }
      ],
      "name": "UpdateMinBidIncrement",
      "type": "event"
    },
    {
      "anonymous": false,
      "inputs": [
        {
          "indexed": false,
          "internalType": "uint256",
          "name": "platformFee",
          "type": "uint256"
        }
      ],
      "name": "UpdatePlatformFee",
      "type": "event"
    },
    {
      "anonymous": false,
      "inputs": [
        {
          "indexed": false,
          "internalType": "address payable",
          "name": "platformFeeRecipient",
          "type": "address"
        }
      ],
      "name": "UpdatePlatformFeeRecipient",
      "type": "event"
    },
    {
      "inputs": [],
      "name": "admin",
      "outputs": [
        {
          "internalType": "address",
          "name": "",
          "type": "address"
        }
      ],
      "stateMutability": "view",
      "type": "function"
    },
    {
      "inputs": [
        {
          "internalType": "address",
          "name": "",
          "type": "address"
        },
        {
          "internalType": "uint256",
          "name": "",
          "type": "uint256"
        }
      ],
      "name": "auctions",
      "outputs": [
        {
          "internalType": "address",
          "name": "owner",
          "type": "address"
        },
        {
          "internalType": "uint256",
          "name": "minBid",
          "type": "uint256"
        },
        {
          "internalType": "uint256",
          "name": "reservePrice",
          "type": "uint256"
        },
        {
          "internalType": "uint256",
          "name": "startTime",
          "type": "uint256"
        },
        {
          "internalType": "uint256",
          "name": "endTime",
          "type": "uint256"
        },
        {
          "internalType": "bool",
          "name": "resulted",
          "type": "bool"
        }
      ],
      "stateMutability": "view",
      "type": "function"
    },
    {
      "inputs": [],
      "name": "bidWithdrawalLockTime",
      "outputs": [
        {
          "internalType": "uint256",
          "name": "",
          "type": "uint256"
        }
      ],
      "stateMutability": "view",
      "type": "function"
    },
    {
      "inputs": [
        {
          "internalType": "address",
          "name": "_nftAddress",
          "type": "address"
        },
        {
          "internalType": "uint256",
          "name": "_tokenId",
          "type": "uint256"
        }
      ],
      "name": "cancelAuction",
      "outputs": [],
      "stateMutability": "nonpayable",
      "type": "function"
    },
    {
      "inputs": [
        {
          "internalType": "address",
          "name": "_nftAddress",
          "type": "address"
        },
        {
          "internalType": "uint256",
          "name": "_tokenId",
          "type": "uint256"
        },
        {
          "internalType": "uint256",
          "name": "_reservePrice",
          "type": "uint256"
        },
        {
          "internalType": "uint256",
          "name": "_startTimestamp",
          "type": "uint256"
        },
        {
          "internalType": "bool",
          "name": "minBidReserve",
          "type": "bool"
        },
        {
          "internalType": "uint256",
          "name": "_endTimestamp",
          "type": "uint256"
        }
      ],
      "name": "createAuction",
      "outputs": [],
      "stateMutability": "payable",
      "type": "function"
    },
    {
      "inputs": [
        {
          "internalType": "address",
          "name": "_nftAddress",
          "type": "address"
        },
        {
          "internalType": "uint256",
          "name": "_tokenId",
          "type": "uint256"
        }
      ],
      "name": "getAuction",
      "outputs": [
        {
          "internalType": "address",
          "name": "_owner",
          "type": "address"
        },
        {
          "internalType": "uint256",
          "name": "_reservePrice",
          "type": "uint256"
        },
        {
          "internalType": "uint256",
          "name": "_startTime",
          "type": "uint256"
        },
        {
          "internalType": "uint256",
          "name": "_endTime",
          "type": "uint256"
        },
        {
          "internalType": "bool",
          "name": "_resulted",
          "type": "bool"
        },
        {
          "internalType": "uint256",
          "name": "minBid",
          "type": "uint256"
        }
      ],
      "stateMutability": "view",
      "type": "function"
    },
    {
      "inputs": [
        {
          "internalType": "address",
          "name": "_nftAddress",
          "type": "address"
        },
        {
          "internalType": "uint256",
          "name": "_tokenId",
          "type": "uint256"
        }
      ],
      "name": "getHighestBidder",
      "outputs": [
        {
          "internalType": "address payable",
          "name": "_bidder",
          "type": "address"
        },
        {
          "internalType": "uint256",
          "name": "_bid",
          "type": "uint256"
        },
        {
          "internalType": "uint256",
          "name": "_lastBidTime",
          "type": "uint256"
        }
      ],
      "stateMutability": "view",
      "type": "function"
    },
    {
      "inputs": [
        {
          "internalType": "address",
          "name": "",
          "type": "address"
        },
        {
          "internalType": "uint256",
          "name": "",
          "type": "uint256"
        }
      ],
      "name": "highestBids",
      "outputs": [
        {
          "internalType": "address payable",
          "name": "bidder",
          "type": "address"
        },
        {
          "internalType": "uint256",
          "name": "bid",
          "type": "uint256"
        },
        {
          "internalType": "uint256",
          "name": "lastBidTime",
          "type": "uint256"
        }
      ],
      "stateMutability": "view",
      "type": "function"
    },
    {
      "inputs": [],
      "name": "isPaused",
      "outputs": [
        {
          "internalType": "bool",
          "name": "",
          "type": "bool"
        }
      ],
      "stateMutability": "view",
      "type": "function"
    },
    {
      "inputs": [],
      "name": "minBidIncrement",
      "outputs": [
        {
          "internalType": "uint256",
          "name": "",
          "type": "uint256"
        }
      ],
      "stateMutability": "view",
      "type": "function"
    },
    {
      "inputs": [
        {
          "internalType": "address",
          "name": "_nftAddress",
          "type": "address"
        },
        {
          "internalType": "uint256",
          "name": "_tokenId",
          "type": "uint256"
        }
      ],
      "name": "placeBid",
      "outputs": [],
      "stateMutability": "payable",
      "type": "function"
    },
    {
      "inputs": [],
      "name": "platformFee",
      "outputs": [
        {
          "internalType": "uint256",
          "name": "",
          "type": "uint256"
        }
      ],
      "stateMutability": "view",
      "type": "function"
    },
    {
      "inputs": [],
      "name": "platformFeeRecipient",
      "outputs": [
        {
          "internalType": "address payable",
          "name": "",
          "type": "address"
        }
      ],
      "stateMutability": "view",
      "type": "function"
    },
    {
      "inputs": [
        {
          "internalType": "address",
          "name": "_nftAddress",
          "type": "address"
        },
        {
          "internalType": "uint256",
          "name": "_tokenId",
          "type": "uint256"
        }
      ],
      "name": "resultAuction",
      "outputs": [],
      "stateMutability": "nonpayable",
      "type": "function"
    },
    {
      "inputs": [],
      "name": "toggleIsPaused",
      "outputs": [],
      "stateMutability": "nonpayable",
      "type": "function"
    },
    {
      "inputs": [
        {
          "internalType": "address",
          "name": "_nftAddress",
          "type": "address"
        },
        {
          "internalType": "uint256",
          "name": "_tokenId",
          "type": "uint256"
        },
        {
          "internalType": "uint256",
          "name": "_endTimestamp",
          "type": "uint256"
        }
      ],
      "name": "updateAuctionEndTime",
      "outputs": [],
      "stateMutability": "nonpayable",
      "type": "function"
    },
    {
      "inputs": [
        {
          "internalType": "address",
          "name": "_nftAddress",
          "type": "address"
        },
        {
          "internalType": "uint256",
          "name": "_tokenId",
          "type": "uint256"
        },
        {
          "internalType": "uint256",
          "name": "_reservePrice",
          "type": "uint256"
        }
      ],
      "name": "updateAuctionReservePrice",
      "outputs": [],
      "stateMutability": "nonpayable",
      "type": "function"
    },
    {
      "inputs": [
        {
          "internalType": "address",
          "name": "_nftAddress",
          "type": "address"
        },
        {
          "internalType": "uint256",
          "name": "_tokenId",
          "type": "uint256"
        },
        {
          "internalType": "uint256",
          "name": "_startTime",
          "type": "uint256"
        }
      ],
      "name": "updateAuctionStartTime",
      "outputs": [],
      "stateMutability": "nonpayable",
      "type": "function"
    },
    {
      "inputs": [
        {
          "internalType": "uint256",
          "name": "_bidWithdrawalLockTime",
          "type": "uint256"
        }
      ],
      "name": "updateBidWithdrawalLockTime",
      "outputs": [],
      "stateMutability": "nonpayable",
      "type": "function"
    },
    {
      "inputs": [
        {
          "internalType": "uint256",
          "name": "_minBidIncrement",
          "type": "uint256"
        }
      ],
      "name": "updateMinBidIncrement",
      "outputs": [],
      "stateMutability": "nonpayable",
      "type": "function"
    },
    {
      "inputs": [
        {
          "internalType": "uint256",
          "name": "_platformFee",
          "type": "uint256"
        }
      ],
      "name": "updatePlatformFee",
      "outputs": [],
      "stateMutability": "nonpayable",
      "type": "function"
    },
    {
      "inputs": [
        {
          "internalType": "address payable",
          "name": "_platformFeeRecipient",
          "type": "address"
        }
      ],
      "name": "updatePlatformFeeRecipient",
      "outputs": [],
      "stateMutability": "nonpayable",
      "type": "function"
    },
    {
      "inputs": [
        {
          "internalType": "address",
          "name": "_nftAddress",
          "type": "address"
        },
        {
          "internalType": "uint256",
          "name": "_tokenId",
          "type": "uint256"
        }
      ],
      "name": "withdrawBid",
      "outputs": [],
      "stateMutability": "nonpayable",
      "type": "function"
    }
  ],
  "bytecode": "0x608060405260016003556104b060045560196005553480156200002157600080fd5b5060405162004bff38038062004bff83398181016040528101906200004791906200017a565b6001600081905550600073ffffffffffffffffffffffffffffffffffffffff168273ffffffffffffffffffffffffffffffffffffffff161415620000c2576040517f08c379a0000000000000000000000000000000000000000000000000000000008152600401620000b990620001e8565b60405180910390fd5b81600660006101000a81548173ffffffffffffffffffffffffffffffffffffffff021916908373ffffffffffffffffffffffffffffffffffffffff16021790555080600760006101000a81548173ffffffffffffffffffffffffffffffffffffffff021916908373ffffffffffffffffffffffffffffffffffffffff1602179055505050620002c5565b6000815190506200015d8162000291565b92915050565b6000815190506200017481620002ab565b92915050565b6000806040838503121562000194576200019362000263565b5b6000620001a48582860162000163565b9250506020620001b7858286016200014c565b9150509250929050565b6000620001d0601e836200020a565b9150620001dd8262000268565b602082019050919050565b600060208201905081810360008301526200020381620001c1565b9050919050565b600082825260208201905092915050565b6000620002288262000243565b9050919050565b60006200023c8262000243565b9050919050565b600073ffffffffffffffffffffffffffffffffffffffff82169050919050565b600080fd5b7f496e76616c696420506c6174666f726d2046656520526563697069656e740000600082015250565b6200029c816200021b565b8114620002a857600080fd5b50565b620002b6816200022f565b8114620002c257600080fd5b50565b61492a80620002d56000396000f3fe6080604052600436106101405760003560e01c8063859b97fe116100b6578063cb82de841161006f578063cb82de8414610464578063d98b9bb514610480578063eb13554f1461049c578063f5fe7f71146104c7578063f851a440146104f0578063f9613d7f1461051b57610140565b8063859b97fe146103565780639ad2d9ec1461037f578063a062feb9146103a8578063a670a9b4146103d1578063aa0b598814610410578063b187bd261461043957610140565b80635f7063ef116101085780635f7063ef1461022f578063623de5ad146102585780636a5362f6146102815780636b753f36146102ac5780636c58a5a4146102eb578063762a66a21461031457610140565b8063083759e01461014557806326232a2e1461016e578063335b115e1461019957806344f91c1e146101c45780634cb8ef5b14610206575b600080fd5b34801561015157600080fd5b5061016c60048036038101906101679190613831565b610532565b005b34801561017a57600080fd5b50610183610603565b60405161019091906140f8565b60405180910390f35b3480156101a557600080fd5b506101ae610609565b6040516101bb91906140f8565b60405180910390f35b3480156101d057600080fd5b506101eb60048036038101906101e69190613664565b61060f565b6040516101fd96959493929190613d5c565b60405180910390f35b34801561021257600080fd5b5061022d60048036038101906102289190613664565b610685565b005b34801561023b57600080fd5b5061025660048036038101906102519190613664565b610998565b005b34801561026457600080fd5b5061027f600480360381019061027a9190613831565b6115ad565b005b34801561028d57600080fd5b5061029661167e565b6040516102a391906140f8565b60405180910390f35b3480156102b857600080fd5b506102d360048036038101906102ce9190613664565b611684565b6040516102e293929190613c3b565b60405180910390f35b3480156102f757600080fd5b50610312600480360381019061030d91906136a4565b6116db565b005b34801561032057600080fd5b5061033b60048036038101906103369190613664565b611a37565b60405161034d96959493929190613cfb565b60405180910390f35b34801561036257600080fd5b5061037d60048036038101906103789190613664565b611af6565b005b34801561038b57600080fd5b506103a660048036038101906103a191906136a4565b611dca565b005b3480156103b457600080fd5b506103cf60048036038101906103ca91906136a4565b6120ce565b005b3480156103dd57600080fd5b506103f860048036038101906103f39190613664565b61233b565b60405161040793929190613c3b565b60405180910390f35b34801561041c57600080fd5b5061043760048036038101906104329190613831565b6123d0565b005b34801561044557600080fd5b5061044e6124a1565b60405161045b9190613dbd565b60405180910390f35b61047e600480360381019061047991906136f7565b6124b4565b005b61049a60048036038101906104959190613664565b6126a3565b005b3480156104a857600080fd5b506104b161286f565b6040516104be9190613c20565b60405180910390f35b3480156104d357600080fd5b506104ee60048036038101906104e99190613637565b612895565b005b3480156104fc57600080fd5b50610505612a10565b6040516105129190613c05565b60405180910390f35b34801561052757600080fd5b50610530612a36565b005b600760009054906101000a900473ffffffffffffffffffffffffffffffffffffffff1673ffffffffffffffffffffffffffffffffffffffff163373ffffffffffffffffffffffffffffffffffffffff16146105c2576040517f08c379a00000000000000000000000000000000000000000000000000000000081526004016105b990614038565b60405180910390fd5b806003819055507f489b0441344cbdcb036bee4857de51567f580e9747166f76b581be803ca45fcb816040516105f891906140f8565b60405180910390a150565b60055481565b60035481565b6001602052816000526040600020602052806000526040600020600091509150508060000160009054906101000a900473ffffffffffffffffffffffffffffffffffffffff16908060010154908060020154908060030154908060040154908060050160009054906101000a900460ff16905086565b61068d612b38565b600660149054906101000a900460ff16156106dd576040517f08c379a00000000000000000000000000000000000000000000000000000000081526004016106d490614018565b60405180910390fd5b6000600260008473ffffffffffffffffffffffffffffffffffffffff1673ffffffffffffffffffffffffffffffffffffffff168152602001908152602001600020600083815260200190815260200160002090503373ffffffffffffffffffffffffffffffffffffffff168160000160009054906101000a900473ffffffffffffffffffffffffffffffffffffffff1673ffffffffffffffffffffffffffffffffffffffff16146107c3576040517f08c379a00000000000000000000000000000000000000000000000000000000081526004016107ba90613fd8565b60405180910390fd5b6000600160008573ffffffffffffffffffffffffffffffffffffffff1673ffffffffffffffffffffffffffffffffffffffff168152602001908152602001600020600084815260200190815260200160002060040154905080610824612b88565b118015610845575061a8c081610838612b88565b6108429190614205565b10155b610884576040517f08c379a000000000000000000000000000000000000000000000000000000000815260040161087b90613fb8565b60405180910390fd5b600082600101549050600260008673ffffffffffffffffffffffffffffffffffffffff1673ffffffffffffffffffffffffffffffffffffffff1681526020019081526020016000206000858152602001908152602001600020600080820160006101000a81549073ffffffffffffffffffffffffffffffffffffffff021916905560018201600090556002820160009055505061092385853384612b90565b3373ffffffffffffffffffffffffffffffffffffffff16848673ffffffffffffffffffffffffffffffffffffffff167f867b8ea96dd803063f905a19f8117cbb1866ec7a594dfede75ab4a5235f61d7c8460405161098191906140f8565b60405180910390a4505050610994612c43565b5050565b6109a0612b38565b6000600160008473ffffffffffffffffffffffffffffffffffffffff1673ffffffffffffffffffffffffffffffffffffffff168152602001908152602001600020600083815260200190815260200160002090503373ffffffffffffffffffffffffffffffffffffffff168373ffffffffffffffffffffffffffffffffffffffff16636352211e846040518263ffffffff1660e01b8152600401610a4491906140f8565b60206040518083038186803b158015610a5c57600080fd5b505afa158015610a70573d6000803e3d6000fd5b505050506040513d601f19601f82011682018060405250810190610a94919061360a565b73ffffffffffffffffffffffffffffffffffffffff16148015610b0657508060000160009054906101000a900473ffffffffffffffffffffffffffffffffffffffff1673ffffffffffffffffffffffffffffffffffffffff163373ffffffffffffffffffffffffffffffffffffffff16145b610b45576040517f08c379a0000000000000000000000000000000000000000000000000000000008152600401610b3c90613e98565b60405180910390fd5b6000816004015411610b8c576040517f08c379a0000000000000000000000000000000000000000000000000000000008152600401610b8390613eb8565b60405180910390fd5b8060040154610b99612b88565b11610bd9576040517f08c379a0000000000000000000000000000000000000000000000000000000008152600401610bd090613f98565b60405180910390fd5b8060050160009054906101000a900460ff1615610c2b576040517f08c379a0000000000000000000000000000000000000000000000000000000008152600401610c2290613f78565b60405180910390fd5b6000600260008573ffffffffffffffffffffffffffffffffffffffff1673ffffffffffffffffffffffffffffffffffffffff1681526020019081526020016000206000848152602001908152602001600020905060008160000160009054906101000a900473ffffffffffffffffffffffffffffffffffffffff169050600082600101549050600073ffffffffffffffffffffffffffffffffffffffff168273ffffffffffffffffffffffffffffffffffffffff161415610d21576040517f08c379a0000000000000000000000000000000000000000000000000000000008152600401610d1890613e38565b60405180910390fd5b8360020154811015610d68576040517f08c379a0000000000000000000000000000000000000000000000000000000008152600401610d5f90613ff8565b60405180910390fd5b8573ffffffffffffffffffffffffffffffffffffffff1663e985e9c533306040518363ffffffff1660e01b8152600401610da3929190613c72565b60206040518083038186803b158015610dbb57600080fd5b505afa158015610dcf573d6000803e3d6000fd5b505050506040513d601f19601f82011682018060405250810190610df39190613784565b610e32576040517f08c379a0000000000000000000000000000000000000000000000000000000008152600401610e2990613f18565b60405180910390fd5b60018460050160006101000a81548160ff021916908315150217905550600260008773ffffffffffffffffffffffffffffffffffffffff1673ffffffffffffffffffffffffffffffffffffffff1681526020019081526020016000206000868152602001908152602001600020600080820160006101000a81549073ffffffffffffffffffffffffffffffffffffffff021916905560018201600090556002820160009055505060008460020154821115610fb4576000610f00866002015484612c4d90919063ffffffff16565b90506000610f2d6103e8610f1f60055485612c6390919063ffffffff16565b612c7990919063ffffffff16565b9050600660009054906101000a900473ffffffffffffffffffffffffffffffffffffffff1673ffffffffffffffffffffffffffffffffffffffff166108fc829081150290604051600060405180830381858888f19350505050158015610f97573d6000803e3d6000fd5b50610fab8185612c4d90919063ffffffff16565b92505050610fb8565b8190505b6000808173ffffffffffffffffffffffffffffffffffffffff166378746d0d8a8a6040518363ffffffff1660e01b8152600401610ff6929190613cd2565b60206040518083038186803b15801561100e57600080fd5b505afa158015611022573d6000803e3d6000fd5b505050506040513d601f19601f82011682018060405250810190611046919061360a565b905060008273ffffffffffffffffffffffffffffffffffffffff1663e1e549c48b8b6040518363ffffffff1660e01b8152600401611085929190613cd2565b60206040518083038186803b15801561109d57600080fd5b505afa1580156110b1573d6000803e3d6000fd5b505050506040513d601f19601f820116820180604052508101906110d591906137b1565b9050600073ffffffffffffffffffffffffffffffffffffffff168273ffffffffffffffffffffffffffffffffffffffff1614158015611119575060008161ffff1614155b156111af57600061114b6103e861113d8461ffff1688612c6390919063ffffffff16565b612c7990919063ffffffff16565b90508273ffffffffffffffffffffffffffffffffffffffff166108fc829081150290604051600060405180830381858888f19350505050158015611193573d6000803e3d6000fd5b506111a78186612c4d90919063ffffffff16565b945050611317565b8273ffffffffffffffffffffffffffffffffffffffff166357b275b48b6040518263ffffffff1660e01b81526004016111e89190613c05565b60606040518083038186803b15801561120057600080fd5b505afa158015611214573d6000803e3d6000fd5b505050506040513d601f19601f8201168201806040525081019061123891906137de565b90508093508192505050600073ffffffffffffffffffffffffffffffffffffffff168273ffffffffffffffffffffffffffffffffffffffff1614158015611284575060008161ffff1614155b156113165760006112b66103e86112a88461ffff1688612c6390919063ffffffff16565b612c7990919063ffffffff16565b90508273ffffffffffffffffffffffffffffffffffffffff166108fc829081150290604051600060405180830381858888f193505050501580156112fe573d6000803e3d6000fd5b506113128186612c4d90919063ffffffff16565b9450505b5b600084111561138c578760000160009054906101000a900473ffffffffffffffffffffffffffffffffffffffff1673ffffffffffffffffffffffffffffffffffffffff166108fc859081150290604051600060405180830381858888f1935050505015801561138a573d6000803e3d6000fd5b505b8973ffffffffffffffffffffffffffffffffffffffff166342842e0e8b73ffffffffffffffffffffffffffffffffffffffff16636352211e8c6040518263ffffffff1660e01b81526004016113e191906140f8565b60206040518083038186803b1580156113f957600080fd5b505afa15801561140d573d6000803e3d6000fd5b505050506040513d601f19601f82011682018060405250810190611431919061360a565b888c6040518463ffffffff1660e01b815260040161145193929190613c9b565b600060405180830381600087803b15801561146b57600080fd5b505af115801561147f573d6000803e3d6000fd5b505050508573ffffffffffffffffffffffffffffffffffffffff16898b73ffffffffffffffffffffffffffffffffffffffff167f5a0c36f9e4fbfc64c8006c9c268b8b075c000da8498da5148237875465b2892633896040516114e3929190613cd2565b60405180910390a4600160008b73ffffffffffffffffffffffffffffffffffffffff1673ffffffffffffffffffffffffffffffffffffffff16815260200190815260200160002060008a8152602001908152602001600020600080820160006101000a81549073ffffffffffffffffffffffffffffffffffffffff021916905560018201600090556002820160009055600382016000905560048201600090556005820160006101000a81549060ff0219169055505050505050505050506115a9612c43565b5050565b600760009054906101000a900473ffffffffffffffffffffffffffffffffffffffff1673ffffffffffffffffffffffffffffffffffffffff163373ffffffffffffffffffffffffffffffffffffffff161461163d576040517f08c379a000000000000000000000000000000000000000000000000000000000815260040161163490614038565b60405180910390fd5b806004819055507ff9e4b69944d3fbdd96aedcda02032e2091346ececc3b55a485b40a6dc09bb9e08160405161167391906140f8565b60405180910390a150565b60045481565b6002602052816000526040600020602052806000526040600020600091509150508060000160009054906101000a900473ffffffffffffffffffffffffffffffffffffffff16908060010154908060020154905083565b600760009054906101000a900473ffffffffffffffffffffffffffffffffffffffff1673ffffffffffffffffffffffffffffffffffffffff163373ffffffffffffffffffffffffffffffffffffffff161461176b576040517f08c379a000000000000000000000000000000000000000000000000000000000815260040161176290614038565b60405180910390fd5b6000600160008573ffffffffffffffffffffffffffffffffffffffff1673ffffffffffffffffffffffffffffffffffffffff168152602001908152602001600020600084815260200190815260200160002090508060000160009054906101000a900473ffffffffffffffffffffffffffffffffffffffff1673ffffffffffffffffffffffffffffffffffffffff163373ffffffffffffffffffffffffffffffffffffffff1614611851576040517f08c379a0000000000000000000000000000000000000000000000000000000008152600401611848906140b8565b60405180910390fd5b60008211611894576040517f08c379a000000000000000000000000000000000000000000000000000000000815260040161188b90613e58565b60405180910390fd5b61189c612b88565b603c82600301546118ad9190614124565b116118ed576040517f08c379a00000000000000000000000000000000000000000000000000000000081526004016118e490613ed8565b60405180910390fd5b806004015461012c836119009190614124565b10611940576040517f08c379a000000000000000000000000000000000000000000000000000000000815260040161193790613f38565b60405180910390fd5b8060050160009054906101000a900460ff1615611992576040517f08c379a000000000000000000000000000000000000000000000000000000000815260040161198990613f78565b60405180910390fd5b60008160040154116119d9576040517f08c379a00000000000000000000000000000000000000000000000000000000081526004016119d090613eb8565b60405180910390fd5b818160030181905550828473ffffffffffffffffffffffffffffffffffffffff167ff123182d1bfce603eb20a2f74cce94af6542f353a4c2a8d5cfadf41822b32b3884604051611a2991906140f8565b60405180910390a350505050565b6000806000806000806000600160008a73ffffffffffffffffffffffffffffffffffffffff1673ffffffffffffffffffffffffffffffffffffffff168152602001908152602001600020600089815260200190815260200160002090508060000160009054906101000a900473ffffffffffffffffffffffffffffffffffffffff168160020154826003015483600401548460050160009054906101000a900460ff168560010154965096509650965096509650509295509295509295565b611afe612b38565b6000600160008473ffffffffffffffffffffffffffffffffffffffff1673ffffffffffffffffffffffffffffffffffffffff16815260200190815260200160002060008381526020019081526020016000206040518060c00160405290816000820160009054906101000a900473ffffffffffffffffffffffffffffffffffffffff1673ffffffffffffffffffffffffffffffffffffffff1673ffffffffffffffffffffffffffffffffffffffff168152602001600182015481526020016002820154815260200160038201548152602001600482015481526020016005820160009054906101000a900460ff16151515158152505090503373ffffffffffffffffffffffffffffffffffffffff168373ffffffffffffffffffffffffffffffffffffffff16636352211e846040518263ffffffff1660e01b8152600401611c4691906140f8565b60206040518083038186803b158015611c5e57600080fd5b505afa158015611c72573d6000803e3d6000fd5b505050506040513d601f19601f82011682018060405250810190611c96919061360a565b73ffffffffffffffffffffffffffffffffffffffff16148015611ce85750806000015173ffffffffffffffffffffffffffffffffffffffff163373ffffffffffffffffffffffffffffffffffffffff16145b611d27576040517f08c379a0000000000000000000000000000000000000000000000000000000008152600401611d1e906140b8565b60405180910390fd5b6000816080015111611d6e576040517f08c379a0000000000000000000000000000000000000000000000000000000008152600401611d6590613eb8565b60405180910390fd5b8060a0015115611db3576040517f08c379a0000000000000000000000000000000000000000000000000000000008152600401611daa90613f78565b60405180910390fd5b611dbd8383612c8f565b50611dc6612c43565b5050565b600760009054906101000a900473ffffffffffffffffffffffffffffffffffffffff1673ffffffffffffffffffffffffffffffffffffffff163373ffffffffffffffffffffffffffffffffffffffff1614611e5a576040517f08c379a0000000000000000000000000000000000000000000000000000000008152600401611e5190614038565b60405180910390fd5b6000600160008573ffffffffffffffffffffffffffffffffffffffff1673ffffffffffffffffffffffffffffffffffffffff168152602001908152602001600020600084815260200190815260200160002090508060000160009054906101000a900473ffffffffffffffffffffffffffffffffffffffff1673ffffffffffffffffffffffffffffffffffffffff163373ffffffffffffffffffffffffffffffffffffffff1614611f40576040517f08c379a0000000000000000000000000000000000000000000000000000000008152600401611f37906140b8565b60405180910390fd5b8060040154611f4d612b88565b10611f8d576040517f08c379a0000000000000000000000000000000000000000000000000000000008152600401611f8490613ef8565b60405180910390fd5b6000816004015411611fd4576040517f08c379a0000000000000000000000000000000000000000000000000000000008152600401611fcb90613eb8565b60405180910390fd5b8181600301541061201a576040517f08c379a000000000000000000000000000000000000000000000000000000000815260040161201190613e18565b60405180910390fd5b61012c612025612b88565b61202f9190614124565b8211612070576040517f08c379a0000000000000000000000000000000000000000000000000000000008152600401612067906140d8565b60405180910390fd5b818160040181905550828473ffffffffffffffffffffffffffffffffffffffff167fd8aaad775c4c9b21112b5cb22ab4618c74936d873850fbd6f2e691701119ffe1846040516120c091906140f8565b60405180910390a350505050565b600760009054906101000a900473ffffffffffffffffffffffffffffffffffffffff1673ffffffffffffffffffffffffffffffffffffffff163373ffffffffffffffffffffffffffffffffffffffff161461215e576040517f08c379a000000000000000000000000000000000000000000000000000000000815260040161215590614038565b60405180910390fd5b6000600160008573ffffffffffffffffffffffffffffffffffffffff1673ffffffffffffffffffffffffffffffffffffffff168152602001908152602001600020600084815260200190815260200160002090508060000160009054906101000a900473ffffffffffffffffffffffffffffffffffffffff1673ffffffffffffffffffffffffffffffffffffffff163373ffffffffffffffffffffffffffffffffffffffff1614612244576040517f08c379a000000000000000000000000000000000000000000000000000000000815260040161223b90613e98565b60405180910390fd5b8060050160009054906101000a900460ff1615612296576040517f08c379a000000000000000000000000000000000000000000000000000000000815260040161228d90613f78565b60405180910390fd5b60008160040154116122dd576040517f08c379a00000000000000000000000000000000000000000000000000000000081526004016122d490613eb8565b60405180910390fd5b818160020181905550828473ffffffffffffffffffffffffffffffffffffffff167f7987fb10b75b4faae7a7dd86931856b449b99b3e9a5761da49ffd2d1a6bf7f098460405161232d91906140f8565b60405180910390a350505050565b600080600080600260008773ffffffffffffffffffffffffffffffffffffffff1673ffffffffffffffffffffffffffffffffffffffff168152602001908152602001600020600086815260200190815260200160002090508060000160009054906101000a900473ffffffffffffffffffffffffffffffffffffffff1681600101548260020154935093509350509250925092565b600760009054906101000a900473ffffffffffffffffffffffffffffffffffffffff1673ffffffffffffffffffffffffffffffffffffffff163373ffffffffffffffffffffffffffffffffffffffff1614612460576040517f08c379a000000000000000000000000000000000000000000000000000000000815260040161245790614038565b60405180910390fd5b806005819055507f2644fd26359c107ff7991b6dfc36ce902b334ce4e3891bbecacc5922aa620efa8160405161249691906140f8565b60405180910390a150565b600660149054906101000a900460ff1681565b600660149054906101000a900460ff1615612504576040517f08c379a00000000000000000000000000000000000000000000000000000000081526004016124fb90614018565b60405180910390fd5b3373ffffffffffffffffffffffffffffffffffffffff168673ffffffffffffffffffffffffffffffffffffffff16636352211e876040518263ffffffff1660e01b815260040161255491906140f8565b60206040518083038186803b15801561256c57600080fd5b505afa158015612580573d6000803e3d6000fd5b505050506040513d601f19601f820116820180604052508101906125a4919061360a565b73ffffffffffffffffffffffffffffffffffffffff1614801561264e57508573ffffffffffffffffffffffffffffffffffffffff1663e985e9c533306040518363ffffffff1660e01b81526004016125fd929190613c72565b60206040518083038186803b15801561261557600080fd5b505afa158015612629573d6000803e3d6000fd5b505050506040513d601f19601f8201168201806040525081019061264d9190613784565b5b61268d576040517f08c379a000000000000000000000000000000000000000000000000000000000815260040161268490614058565b60405180910390fd5b61269b868686868686612ef1565b505050505050565b6126ab612b38565b600660149054906101000a900460ff16156126fb576040517f08c379a00000000000000000000000000000000000000000000000000000000081526004016126f290614018565b60405180910390fd5b6000600160008473ffffffffffffffffffffffffffffffffffffffff1673ffffffffffffffffffffffffffffffffffffffff16815260200190815260200160002060008381526020019081526020016000206040518060c00160405290816000820160009054906101000a900473ffffffffffffffffffffffffffffffffffffffff1673ffffffffffffffffffffffffffffffffffffffff1673ffffffffffffffffffffffffffffffffffffffff168152602001600182015481526020016002820154815260200160038201548152602001600482015481526020016005820160009054906101000a900460ff16151515158152505090508060600151612800612b88565b1015801561281957508060800151612816612b88565b11155b612858576040517f08c379a000000000000000000000000000000000000000000000000000000000815260040161284f90614078565b60405180910390fd5b6128628383613255565b5061286b612c43565b5050565b600660009054906101000a900473ffffffffffffffffffffffffffffffffffffffff1681565b600760009054906101000a900473ffffffffffffffffffffffffffffffffffffffff1673ffffffffffffffffffffffffffffffffffffffff163373ffffffffffffffffffffffffffffffffffffffff1614612925576040517f08c379a000000000000000000000000000000000000000000000000000000000815260040161291c90614038565b60405180910390fd5b600073ffffffffffffffffffffffffffffffffffffffff168173ffffffffffffffffffffffffffffffffffffffff161415612995576040517f08c379a000000000000000000000000000000000000000000000000000000000815260040161298c90613f58565b60405180910390fd5b80600660006101000a81548173ffffffffffffffffffffffffffffffffffffffff021916908373ffffffffffffffffffffffffffffffffffffffff1602179055507fe57e7c1f36cc83fade34e32351e6eee7eb9da532662b1b5da10c631e8222aca781604051612a059190613c20565b60405180910390a150565b600760009054906101000a900473ffffffffffffffffffffffffffffffffffffffff1681565b600760009054906101000a900473ffffffffffffffffffffffffffffffffffffffff1673ffffffffffffffffffffffffffffffffffffffff163373ffffffffffffffffffffffffffffffffffffffff1614612ac6576040517f08c379a0000000000000000000000000000000000000000000000000000000008152600401612abd90614038565b60405180910390fd5b600660149054906101000a900460ff1615600660146101000a81548160ff0219169083151502179055507f9077d36bc00859b5c3f320310707208543dd35092cb0a0fe117d0c6a558b148b600660149054906101000a900460ff16604051612b2e9190613dbd565b60405180910390a1565b60026000541415612b7e576040517f08c379a0000000000000000000000000000000000000000000000000000000008152600401612b7590614098565b60405180910390fd5b6002600081905550565b600042905090565b8173ffffffffffffffffffffffffffffffffffffffff166108fc829081150290604051600060405180830381858888f19350505050158015612bd6573d6000803e3d6000fd5b508173ffffffffffffffffffffffffffffffffffffffff16838573ffffffffffffffffffffffffffffffffffffffff167f90e20d1ba82eaa07a212267355536f76bc83bf91c81fd41b74283c4082e7695284604051612c3591906140f8565b60405180910390a450505050565b6001600081905550565b60008183612c5b9190614205565b905092915050565b60008183612c7191906141ab565b905092915050565b60008183612c87919061417a565b905092915050565b6000600260008473ffffffffffffffffffffffffffffffffffffffff1673ffffffffffffffffffffffffffffffffffffffff16815260200190815260200160002060008381526020019081526020016000209050600073ffffffffffffffffffffffffffffffffffffffff168160000160009054906101000a900473ffffffffffffffffffffffffffffffffffffffff1673ffffffffffffffffffffffffffffffffffffffff1614612dfa57612d6f83838360000160009054906101000a900473ffffffffffffffffffffffffffffffffffffffff168460010154612b90565b600260008473ffffffffffffffffffffffffffffffffffffffff1673ffffffffffffffffffffffffffffffffffffffff1681526020019081526020016000206000838152602001908152602001600020600080820160006101000a81549073ffffffffffffffffffffffffffffffffffffffff02191690556001820160009055600282016000905550505b600160008473ffffffffffffffffffffffffffffffffffffffff1673ffffffffffffffffffffffffffffffffffffffff1681526020019081526020016000206000838152602001908152602001600020600080820160006101000a81549073ffffffffffffffffffffffffffffffffffffffff021916905560018201600090556002820160009055600382016000905560048201600090556005820160006101000a81549060ff02191690555050818373ffffffffffffffffffffffffffffffffffffffff167f018b64b6242d32aa550e95d78985b938d71af5b3f10827b0683f55da1639304860405160405180910390a3505050565b6000600160008873ffffffffffffffffffffffffffffffffffffffff1673ffffffffffffffffffffffffffffffffffffffff16815260200190815260200160002060008781526020019081526020016000206004015414612f87576040517f08c379a0000000000000000000000000000000000000000000000000000000008152600401612f7e90613ed8565b60405180910390fd5b61012c83612f959190614124565b811015612fd7576040517f08c379a0000000000000000000000000000000000000000000000000000000008152600401612fce90613e78565b60405180910390fd5b612fdf612b88565b8311613020576040517f08c379a000000000000000000000000000000000000000000000000000000000815260040161301790613e58565b60405180910390fd5b600554341015613065576040517f08c379a000000000000000000000000000000000000000000000000000000000815260040161305c90613e58565b60405180910390fd5b600034905060008315613076578590505b6040518060c001604052803373ffffffffffffffffffffffffffffffffffffffff16815260200182815260200187815260200186815260200184815260200160001515815250600160008a73ffffffffffffffffffffffffffffffffffffffff1673ffffffffffffffffffffffffffffffffffffffff168152602001908152602001600020600089815260200190815260200160002060008201518160000160006101000a81548173ffffffffffffffffffffffffffffffffffffffff021916908373ffffffffffffffffffffffffffffffffffffffff1602179055506020820151816001015560408201518160020155606082015181600301556080820151816004015560a08201518160050160006101000a81548160ff021916908315150217905550905050600660009054906101000a900473ffffffffffffffffffffffffffffffffffffffff1673ffffffffffffffffffffffffffffffffffffffff166108fc839081150290604051600060405180830381858888f19350505050158015613206573d6000803e3d6000fd5b50868873ffffffffffffffffffffffffffffffffffffffff167f3249a06bd478adf780bb7930214ad005e9cfa517d63221c0b77f27199d1a58b360405160405180910390a35050505050505050565b600660149054906101000a900460ff16156132a5576040517f08c379a000000000000000000000000000000000000000000000000000000000815260040161329c90614018565b60405180910390fd5b6000600160008473ffffffffffffffffffffffffffffffffffffffff1673ffffffffffffffffffffffffffffffffffffffff16815260200190815260200160002060008381526020019081526020016000209050806002015481600101541415613351578060020154341015613350576040517f08c379a000000000000000000000000000000000000000000000000000000000815260040161334790613dd8565b60405180910390fd5b5b6000600260008573ffffffffffffffffffffffffffffffffffffffff1673ffffffffffffffffffffffffffffffffffffffff1681526020019081526020016000206000848152602001908152602001600020905060006133c0600354836001015461356190919063ffffffff16565b905080341015613405576040517f08c379a00000000000000000000000000000000000000000000000000000000081526004016133fc90613df8565b60405180910390fd5b600073ffffffffffffffffffffffffffffffffffffffff168260000160009054906101000a900473ffffffffffffffffffffffffffffffffffffffff1673ffffffffffffffffffffffffffffffffffffffff16146134925761349185858460000160009054906101000a900473ffffffffffffffffffffffffffffffffffffffff168560010154612b90565b5b338260000160006101000a81548173ffffffffffffffffffffffffffffffffffffffff021916908373ffffffffffffffffffffffffffffffffffffffff1602179055503482600101819055506134e6612b88565b826002018190555060003490503373ffffffffffffffffffffffffffffffffffffffff16858773ffffffffffffffffffffffffffffffffffffffff167f0158f5674dc243762459b88cfc91b10d2d1ef9d40821cca978c2b680aa4446828460405161355191906140f8565b60405180910390a4505050505050565b6000818361356f9190614124565b905092915050565b60008135905061358681614881565b92915050565b60008151905061359b81614881565b92915050565b6000813590506135b081614898565b92915050565b6000813590506135c5816148af565b92915050565b6000815190506135da816148af565b92915050565b6000815190506135ef816148c6565b92915050565b600081359050613604816148dd565b92915050565b6000602082840312156136205761361f6142ff565b5b600061362e8482850161358c565b91505092915050565b60006020828403121561364d5761364c6142ff565b5b600061365b848285016135a1565b91505092915050565b6000806040838503121561367b5761367a6142ff565b5b600061368985828601613577565b925050602061369a858286016135f5565b9150509250929050565b6000806000606084860312156136bd576136bc6142ff565b5b60006136cb86828701613577565b93505060206136dc868287016135f5565b92505060406136ed868287016135f5565b9150509250925092565b60008060008060008060c08789031215613714576137136142ff565b5b600061372289828a01613577565b965050602061373389828a016135f5565b955050604061374489828a016135f5565b945050606061375589828a016135f5565b935050608061376689828a016135b6565b92505060a061377789828a016135f5565b9150509295509295509295565b60006020828403121561379a576137996142ff565b5b60006137a8848285016135cb565b91505092915050565b6000602082840312156137c7576137c66142ff565b5b60006137d5848285016135e0565b91505092915050565b6000806000606084860312156137f7576137f66142ff565b5b6000613805868287016135e0565b93505060206138168682870161358c565b92505060406138278682870161358c565b9150509250925092565b600060208284031215613847576138466142ff565b5b6000613855848285016135f5565b91505092915050565b6138678161424b565b82525050565b61387681614239565b82525050565b6138858161425d565b82525050565b6000613898602683614113565b91506138a382614304565b604082019050919050565b60006138bb601f83614113565b91506138c682614353565b602082019050919050565b60006138de602383614113565b91506138e98261437c565b604082019050919050565b6000613901600c83614113565b915061390c826143cb565b602082019050919050565b6000613924601283614113565b915061392f826143f4565b602082019050919050565b6000613947603283614113565b91506139528261441d565b604082019050919050565b600061396a601983614113565b91506139758261446c565b602082019050919050565b600061398d601183614113565b915061399882614495565b602082019050919050565b60006139b0601783614113565b91506139bb826144be565b602082019050919050565b60006139d3601583614113565b91506139de826144e7565b602082019050919050565b60006139f6601483614113565b9150613a0182614510565b602082019050919050565b6000613a19603683614113565b9150613a2482614539565b604082019050919050565b6000613a3c600c83614113565b9150613a4782614588565b602082019050919050565b6000613a5f601883614113565b9150613a6a826145b1565b602082019050919050565b6000613a82601183614113565b9150613a8d826145da565b602082019050919050565b6000613aa5603683614113565b9150613ab082614603565b604082019050919050565b6000613ac8601e83614113565b9150613ad382614652565b602082019050919050565b6000613aeb602183614113565b9150613af68261467b565b604082019050919050565b6000613b0e600f83614113565b9150613b19826146ca565b602082019050919050565b6000613b31602183614113565b9150613b3c826146f3565b604082019050919050565b6000613b54602683614113565b9150613b5f82614742565b604082019050919050565b6000613b77602583614113565b9150613b8282614791565b604082019050919050565b6000613b9a601f83614113565b9150613ba5826147e0565b602082019050919050565b6000613bbd601483614113565b9150613bc882614809565b602082019050919050565b6000613be0602283614113565b9150613beb82614832565b604082019050919050565b613bff81614297565b82525050565b6000602082019050613c1a600083018461386d565b92915050565b6000602082019050613c35600083018461385e565b92915050565b6000606082019050613c50600083018661385e565b613c5d6020830185613bf6565b613c6a6040830184613bf6565b949350505050565b6000604082019050613c87600083018561386d565b613c94602083018461386d565b9392505050565b6000606082019050613cb0600083018661386d565b613cbd602083018561386d565b613cca6040830184613bf6565b949350505050565b6000604082019050613ce7600083018561386d565b613cf46020830184613bf6565b9392505050565b600060c082019050613d10600083018961386d565b613d1d6020830188613bf6565b613d2a6040830187613bf6565b613d376060830186613bf6565b613d44608083018561387c565b613d5160a0830184613bf6565b979650505050505050565b600060c082019050613d71600083018961386d565b613d7e6020830188613bf6565b613d8b6040830187613bf6565b613d986060830186613bf6565b613da56080830185613bf6565b613db260a083018461387c565b979650505050505050565b6000602082019050613dd2600083018461387c565b92915050565b60006020820190508181036000830152613df18161388b565b9050919050565b60006020820190508181036000830152613e11816138ae565b9050919050565b60006020820190508181036000830152613e31816138d1565b9050919050565b60006020820190508181036000830152613e51816138f4565b9050919050565b60006020820190508181036000830152613e7181613917565b9050919050565b60006020820190508181036000830152613e918161393a565b9050919050565b60006020820190508181036000830152613eb18161395d565b9050919050565b60006020820190508181036000830152613ed181613980565b9050919050565b60006020820190508181036000830152613ef1816139a3565b9050919050565b60006020820190508181036000830152613f11816139c6565b9050919050565b60006020820190508181036000830152613f31816139e9565b9050919050565b60006020820190508181036000830152613f5181613a0c565b9050919050565b60006020820190508181036000830152613f7181613a2f565b9050919050565b60006020820190508181036000830152613f9181613a52565b9050919050565b60006020820190508181036000830152613fb181613a75565b9050919050565b60006020820190508181036000830152613fd181613a98565b9050919050565b60006020820190508181036000830152613ff181613abb565b9050919050565b6000602082019050818103600083015261401181613ade565b9050919050565b6000602082019050818103600083015261403181613b01565b9050919050565b6000602082019050818103600083015261405181613b24565b9050919050565b6000602082019050818103600083015261407181613b47565b9050919050565b6000602082019050818103600083015261409181613b6a565b9050919050565b600060208201905081810360008301526140b181613b8d565b9050919050565b600060208201905081810360008301526140d181613bb0565b9050919050565b600060208201905081810360008301526140f181613bd3565b9050919050565b600060208201905061410d6000830184613bf6565b92915050565b600082825260208201905092915050565b600061412f82614297565b915061413a83614297565b9250827fffffffffffffffffffffffffffffffffffffffffffffffffffffffffffffffff0382111561416f5761416e6142a1565b5b828201905092915050565b600061418582614297565b915061419083614297565b9250826141a05761419f6142d0565b5b828204905092915050565b60006141b682614297565b91506141c183614297565b9250817fffffffffffffffffffffffffffffffffffffffffffffffffffffffffffffffff04831182151516156141fa576141f96142a1565b5b828202905092915050565b600061421082614297565b915061421b83614297565b92508282101561422e5761422d6142a1565b5b828203905092915050565b600061424482614277565b9050919050565b600061425682614277565b9050919050565b60008115159050919050565b600061ffff82169050919050565b600073ffffffffffffffffffffffffffffffffffffffff82169050919050565b6000819050919050565b7f4e487b7100000000000000000000000000000000000000000000000000000000600052601160045260246000fd5b7f4e487b7100000000000000000000000000000000000000000000000000000000600052601260045260246000fd5b600080fd5b7f6269642063616e6e6f74206265206c6f776572207468616e207265736572766560008201527f2070726963650000000000000000000000000000000000000000000000000000602082015250565b7f6661696c656420746f206f757462696420686967686573742062696464657200600082015250565b7f656e642074696d65206d7573742062652067726561746572207468616e20737460008201527f6172740000000000000000000000000000000000000000000000000000000000602082015250565b7f6e6f206f70656e20626964730000000000000000000000000000000000000000600082015250565b7f696e76616c69642073746172742074696d650000000000000000000000000000600082015250565b7f656e642074696d65206d7573742062652067726561746572207468616e20737460008201527f617274202862792035206d696e75746573290000000000000000000000000000602082015250565b7f73656e646572206d757374206265206974656d206f776e657200000000000000600082015250565b7f6e6f2061756374696f6e20657869737473000000000000000000000000000000600082015250565b7f61756374696f6e20616c72656164792073746172746564000000000000000000600082015250565b7f61756374696f6e20616c726561647920656e6465640000000000000000000000600082015250565b7f61756374696f6e206e6f7420617070726f766564000000000000000000000000600082015250565b7f73746172742074696d652073686f756c64206265206c657373207468616e206560008201527f6e642074696d65202862792035206d696e757465732900000000000000000000602082015250565b7f7a65726f20616464726573730000000000000000000000000000000000000000600082015250565b7f61756374696f6e20616c726561647920726573756c7465640000000000000000600082015250565b7f61756374696f6e206e6f7420656e646564000000000000000000000000000000600082015250565b7f63616e207769746864726177206f6e6c7920616674657220313220686f75727360008201527f202861667465722061756374696f6e20656e6465642900000000000000000000602082015250565b7f796f7520617265206e6f74207468652068696768657374206269646465720000600082015250565b7f68696768657374206269642069732062656c6f7720726573657276655072696360008201527f6500000000000000000000000000000000000000000000000000000000000000602082015250565b7f636f6e7472616374207061757365640000000000000000000000000000000000600082015250565b7f596f7520617265206e6f7420746865206f776e6572206f6620636f6e7472616360008201527f7400000000000000000000000000000000000000000000000000000000000000602082015250565b7f6e6f74206f776e657220616e64206f7220636f6e7472616374206e6f7420617060008201527f70726f7665640000000000000000000000000000000000000000000000000000602082015250565b7f62696464696e67206f757473696465206f66207468652061756374696f6e207760008201527f696e646f77000000000000000000000000000000000000000000000000000000602082015250565b7f5265656e7472616e637947756172643a207265656e7472616e742063616c6c00600082015250565b7f73656e646572206d757374206265206f776e6572000000000000000000000000600082015250565b7f61756374696f6e2073686f756c6420656e642061667465722035206d696e757460008201527f6573000000000000000000000000000000000000000000000000000000000000602082015250565b61488a81614239565b811461489557600080fd5b50565b6148a18161424b565b81146148ac57600080fd5b50565b6148b88161425d565b81146148c357600080fd5b50565b6148cf81614269565b81146148da57600080fd5b50565b6148e681614297565b81146148f157600080fd5b5056fea264697066735822122076c981f7c40d1391726e1b41a6ae72190b1795433a50c07c38e52a00d14c7a0d64736f6c63430008070033",
  "linkReferences": {},
  "deployedLinkReferences": {}
}