{
  "_format": "hh-sol-artifact-1",
  "contractName": "HexaNFTs",
  "sourceName": "contracts/HexaNFTs.sol",
  "abi": [
    {
      "inputs": [
        {
          "internalType": "address payable",
          "name": "_feeRecipient",
          "type": "address"
        },
        {
          "internalType": "uint256",
          "name": "_platformFee",
          "type": "uint256"
        }
      ],
      "stateMutability": "nonpayable",
      "type": "constructor"
    },
    {
      "anonymous": false,
      "inputs": [
        {
          "indexed": true,
          "internalType": "address",
          "name": "owner",
          "type": "address"
        },
        {
          "indexed": true,
          "internalType": "address",
          "name": "approved",
          "type": "address"
        },
        {
          "indexed": true,
          "internalType": "uint256",
          "name": "tokenId",
          "type": "uint256"
        }
      ],
      "name": "Approval",
      "type": "event"
    },
    {
      "anonymous": false,
      "inputs": [
        {
          "indexed": true,
          "internalType": "address",
          "name": "owner",
          "type": "address"
        },
        {
          "indexed": true,
          "internalType": "address",
          "name": "operator",
          "type": "address"
        },
        {
          "indexed": false,
          "internalType": "bool",
          "name": "approved",
          "type": "bool"
        }
      ],
      "name": "ApprovalForAll",
      "type": "event"
    },
    {
      "anonymous": false,
      "inputs": [
        {
          "indexed": false,
          "internalType": "uint256",
          "name": "tokenId",
          "type": "uint256"
        },
        {
          "indexed": false,
          "internalType": "address",
          "name": "beneficiary",
          "type": "address"
        },
        {
          "indexed": false,
          "internalType": "string",
          "name": "tokenUri",
          "type": "string"
        },
        {
          "indexed": false,
          "internalType": "address",
          "name": "minter",
          "type": "address"
        }
      ],
      "name": "Minted",
      "type": "event"
    },
    {
      "anonymous": false,
      "inputs": [
        {
          "indexed": true,
          "internalType": "address",
          "name": "previousOwner",
          "type": "address"
        },
        {
          "indexed": true,
          "internalType": "address",
          "name": "newOwner",
          "type": "address"
        }
      ],
      "name": "OwnershipTransferred",
      "type": "event"
    },
    {
      "anonymous": false,
      "inputs": [
        {
          "indexed": true,
          "internalType": "address",
          "name": "from",
          "type": "address"
        },
        {
          "indexed": true,
          "internalType": "address",
          "name": "to",
          "type": "address"
        },
        {
          "indexed": true,
          "internalType": "uint256",
          "name": "tokenId",
          "type": "uint256"
        }
      ],
      "name": "Transfer",
      "type": "event"
    },
    {
      "anonymous": false,
      "inputs": [
        {
          "indexed": false,
          "internalType": "uint256",
          "name": "platformFee",
          "type": "uint256"
        }
      ],
      "name": "UpdatePlatformFee",
      "type": "event"
    },
    {
      "anonymous": false,
      "inputs": [
        {
          "indexed": false,
          "internalType": "address payable",
          "name": "platformFeeRecipient",
          "type": "address"
        }
      ],
      "name": "UpdatePlatformFeeRecipient",
      "type": "event"
    },
    {
      "inputs": [
        {
          "internalType": "address",
          "name": "to",
          "type": "address"
        },
        {
          "internalType": "uint256",
          "name": "tokenId",
          "type": "uint256"
        }
      ],
      "name": "approve",
      "outputs": [],
      "stateMutability": "nonpayable",
      "type": "function"
    },
    {
      "inputs": [
        {
          "internalType": "address",
          "name": "owner",
          "type": "address"
        }
      ],
      "name": "balanceOf",
      "outputs": [
        {
          "internalType": "uint256",
          "name": "",
          "type": "uint256"
        }
      ],
      "stateMutability": "view",
      "type": "function"
    },
    {
      "inputs": [
        {
          "internalType": "uint256",
          "name": "_tokenId",
          "type": "uint256"
        }
      ],
      "name": "burn",
      "outputs": [],
      "stateMutability": "nonpayable",
      "type": "function"
    },
    {
      "inputs": [
        {
          "internalType": "uint256",
          "name": "",
          "type": "uint256"
        }
      ],
      "name": "creators",
      "outputs": [
        {
          "internalType": "address",
          "name": "",
          "type": "address"
        }
      ],
      "stateMutability": "view",
      "type": "function"
    },
    {
      "inputs": [
        {
          "internalType": "uint256",
          "name": "_tokenId",
          "type": "uint256"
        }
      ],
      "name": "exists",
      "outputs": [
        {
          "internalType": "bool",
          "name": "",
          "type": "bool"
        }
      ],
      "stateMutability": "view",
      "type": "function"
    },
    {
      "inputs": [],
      "name": "feeReceipient",
      "outputs": [
        {
          "internalType": "address payable",
          "name": "",
          "type": "address"
        }
      ],
      "stateMutability": "view",
      "type": "function"
    },
    {
      "inputs": [
        {
          "internalType": "uint256",
          "name": "tokenId",
          "type": "uint256"
        }
      ],
      "name": "getApproved",
      "outputs": [
        {
          "internalType": "address",
          "name": "",
          "type": "address"
        }
      ],
      "stateMutability": "view",
      "type": "function"
    },
    {
      "inputs": [
        {
          "internalType": "uint256",
          "name": "_tokenId",
          "type": "uint256"
        },
        {
          "internalType": "address",
          "name": "_operator",
          "type": "address"
        }
      ],
      "name": "isApproved",
      "outputs": [
        {
          "internalType": "bool",
          "name": "",
          "type": "bool"
        }
      ],
      "stateMutability": "view",
      "type": "function"
    },
    {
      "inputs": [
        {
          "internalType": "address",
          "name": "owner",
          "type": "address"
        },
        {
          "internalType": "address",
          "name": "operator",
          "type": "address"
        }
      ],
      "name": "isApprovedForAll",
      "outputs": [
        {
          "internalType": "bool",
          "name": "",
          "type": "bool"
        }
      ],
      "stateMutability": "view",
      "type": "function"
    },
    {
      "inputs": [
        {
          "internalType": "address",
          "name": "_beneficiary",
          "type": "address"
        },
        {
          "internalType": "string",
          "name": "_tokenUri",
          "type": "string"
        }
      ],
      "name": "mint",
      "outputs": [
        {
          "internalType": "uint256",
          "name": "",
          "type": "uint256"
        }
      ],
      "stateMutability": "payable",
      "type": "function"
    },
    {
      "inputs": [],
      "name": "name",
      "outputs": [
        {
          "internalType": "string",
          "name": "",
          "type": "string"
        }
      ],
      "stateMutability": "view",
      "type": "function"
    },
    {
      "inputs": [],
      "name": "owner",
      "outputs": [
        {
          "internalType": "address",
          "name": "",
          "type": "address"
        }
      ],
      "stateMutability": "view",
      "type": "function"
    },
    {
      "inputs": [
        {
          "internalType": "uint256",
          "name": "tokenId",
          "type": "uint256"
        }
      ],
      "name": "ownerOf",
      "outputs": [
        {
          "internalType": "address",
          "name": "",
          "type": "address"
        }
      ],
      "stateMutability": "view",
      "type": "function"
    },
    {
      "inputs": [],
      "name": "platformFee",
      "outputs": [
        {
          "internalType": "uint256",
          "name": "",
          "type": "uint256"
        }
      ],
      "stateMutability": "view",
      "type": "function"
    },
    {
      "inputs": [],
      "name": "renounceOwnership",
      "outputs": [],
      "stateMutability": "nonpayable",
      "type": "function"
    },
    {
      "inputs": [
        {
          "internalType": "address",
          "name": "from",
          "type": "address"
        },
        {
          "internalType": "address",
          "name": "to",
          "type": "address"
        },
        {
          "internalType": "uint256",
          "name": "tokenId",
          "type": "uint256"
        }
      ],
      "name": "safeTransferFrom",
      "outputs": [],
      "stateMutability": "nonpayable",
      "type": "function"
    },
    {
      "inputs": [
        {
          "internalType": "address",
          "name": "from",
          "type": "address"
        },
        {
          "internalType": "address",
          "name": "to",
          "type": "address"
        },
        {
          "internalType": "uint256",
          "name": "tokenId",
          "type": "uint256"
        },
        {
          "internalType": "bytes",
          "name": "data",
          "type": "bytes"
        }
      ],
      "name": "safeTransferFrom",
      "outputs": [],
      "stateMutability": "nonpayable",
      "type": "function"
    },
    {
      "inputs": [
        {
          "internalType": "address",
          "name": "operator",
          "type": "address"
        },
        {
          "internalType": "bool",
          "name": "approved",
          "type": "bool"
        }
      ],
      "name": "setApprovalForAll",
      "outputs": [],
      "stateMutability": "nonpayable",
      "type": "function"
    },
    {
      "inputs": [
        {
          "internalType": "bytes4",
          "name": "interfaceId",
          "type": "bytes4"
        }
      ],
      "name": "supportsInterface",
      "outputs": [
        {
          "internalType": "bool",
          "name": "",
          "type": "bool"
        }
      ],
      "stateMutability": "view",
      "type": "function"
    },
    {
      "inputs": [],
      "name": "symbol",
      "outputs": [
        {
          "internalType": "string",
          "name": "",
          "type": "string"
        }
      ],
      "stateMutability": "view",
      "type": "function"
    },
    {
      "inputs": [
        {
          "internalType": "uint256",
          "name": "index",
          "type": "uint256"
        }
      ],
      "name": "tokenByIndex",
      "outputs": [
        {
          "internalType": "uint256",
          "name": "",
          "type": "uint256"
        }
      ],
      "stateMutability": "view",
      "type": "function"
    },
    {
      "inputs": [],
      "name": "tokenIdPointer",
      "outputs": [
        {
          "internalType": "uint256",
          "name": "",
          "type": "uint256"
        }
      ],
      "stateMutability": "view",
      "type": "function"
    },
    {
      "inputs": [
        {
          "internalType": "address",
          "name": "owner",
          "type": "address"
        },
        {
          "internalType": "uint256",
          "name": "index",
          "type": "uint256"
        }
      ],
      "name": "tokenOfOwnerByIndex",
      "outputs": [
        {
          "internalType": "uint256",
          "name": "",
          "type": "uint256"
        }
      ],
      "stateMutability": "view",
      "type": "function"
    },
    {
      "inputs": [
        {
          "internalType": "uint256",
          "name": "tokenId",
          "type": "uint256"
        }
      ],
      "name": "tokenURI",
      "outputs": [
        {
          "internalType": "string",
          "name": "",
          "type": "string"
        }
      ],
      "stateMutability": "view",
      "type": "function"
    },
    {
      "inputs": [],
      "name": "totalSupply",
      "outputs": [
        {
          "internalType": "uint256",
          "name": "",
          "type": "uint256"
        }
      ],
      "stateMutability": "view",
      "type": "function"
    },
    {
      "inputs": [
        {
          "internalType": "address",
          "name": "from",
          "type": "address"
        },
        {
          "internalType": "address",
          "name": "to",
          "type": "address"
        },
        {
          "internalType": "uint256",
          "name": "tokenId",
          "type": "uint256"
        }
      ],
      "name": "transferFrom",
      "outputs": [],
      "stateMutability": "nonpayable",
      "type": "function"
    },
    {
      "inputs": [
        {
          "internalType": "address",
          "name": "newOwner",
          "type": "address"
        }
      ],
      "name": "transferOwnership",
      "outputs": [],
      "stateMutability": "nonpayable",
      "type": "function"
    },
    {
      "inputs": [
        {
          "internalType": "uint256",
          "name": "_platformFee",
          "type": "uint256"
        }
      ],
      "name": "updatePlatformFee",
      "outputs": [],
      "stateMutability": "nonpayable",
      "type": "function"
    },
    {
      "inputs": [
        {
          "internalType": "address payable",
          "name": "_platformFeeRecipient",
          "type": "address"
        }
      ],
      "name": "updatePlatformFeeRecipient",
      "outputs": [],
      "stateMutability": "nonpayable",
      "type": "function"
    },
    {
      "inputs": [
        {
          "internalType": "address",
          "name": "_owner",
          "type": "address"
        }
      ],
      "name": "walletOfOwner",
      "outputs": [
        {
          "internalType": "uint256[]",
          "name": "",
          "type": "uint256[]"
        }
      ],
      "stateMutability": "view",
      "type": "function"
    }
  ],
  "bytecode": "0x60806040523480156200001157600080fd5b5060405162004813380380620048138339818101604052810190620000379190620002fb565b6040518060400160405280600681526020017f417274696f6e00000000000000000000000000000000000000000000000000008152506040518060400160405280600381526020017f41727400000000000000000000000000000000000000000000000000000000008152508160009080519060200190620000bb9291906200021d565b508060019080519060200190620000d49291906200021d565b5050506001600a81905550620000ff620000f36200014f60201b60201c565b6200015760201b60201c565b8060118190555081601360006101000a81548173ffffffffffffffffffffffffffffffffffffffff021916908373ffffffffffffffffffffffffffffffffffffffff16021790555050506200041e565b600033905090565b6000600b60009054906101000a900473ffffffffffffffffffffffffffffffffffffffff16905081600b60006101000a81548173ffffffffffffffffffffffffffffffffffffffff021916908373ffffffffffffffffffffffffffffffffffffffff1602179055508173ffffffffffffffffffffffffffffffffffffffff168173ffffffffffffffffffffffffffffffffffffffff167f8be0079c531659141344cd1fd0a4f28419497f9722a3daafe3b4186f6b6457e060405160405180910390a35050565b8280546200022b9062000380565b90600052602060002090601f0160209004810192826200024f57600085556200029b565b82601f106200026a57805160ff19168380011785556200029b565b828001600101855582156200029b579182015b828111156200029a5782518255916020019190600101906200027d565b5b509050620002aa9190620002ae565b5090565b5b80821115620002c9576000816000905550600101620002af565b5090565b600081519050620002de81620003ea565b92915050565b600081519050620002f58162000404565b92915050565b60008060408385031215620003155762000314620003e5565b5b60006200032585828601620002cd565b92505060206200033885828601620002e4565b9150509250929050565b60006200034f8262000356565b9050919050565b600073ffffffffffffffffffffffffffffffffffffffff82169050919050565b6000819050919050565b600060028204905060018216806200039957607f821691505b60208210811415620003b057620003af620003b6565b5b50919050565b7f4e487b7100000000000000000000000000000000000000000000000000000000600052602260045260246000fd5b600080fd5b620003f58162000342565b81146200040157600080fd5b50565b6200040f8162000376565b81146200041b57600080fd5b50565b6143e5806200042e6000396000f3fe6080604052600436106101cd5760003560e01c806356c31637116100f7578063aa0b598811610095578063d0def52111610064578063d0def521146106d4578063e985e9c514610704578063f2fde38b14610741578063f5fe7f711461076a576101cd565b8063aa0b598814610608578063b88d4fde14610631578063c87b56dd1461065a578063cd53d08e14610697576101cd565b8063715018a6116100d1578063715018a6146105725780638da5cb5b1461058957806395d89b41146105b4578063a22cb465146105df576101cd565b806356c31637146104bb5780636352211e146104f857806370a0823114610535576101cd565b80632f745c591161016f57806342966c681161013e57806342966c68146103db578063438b6300146104045780634f558e79146104415780634f6ccce71461047e576101cd565b80632f745c591461031f5780633740ebb31461035c5780633b3a1a7a1461038757806342842e0e146103b2576101cd565b8063095ea7b3116101ab578063095ea7b31461027757806318160ddd146102a057806323b872dd146102cb57806326232a2e146102f4576101cd565b806301ffc9a7146101d257806306fdde031461020f578063081812fc1461023a575b600080fd5b3480156101de57600080fd5b506101f960048036038101906101f49190613001565b610793565b604051610206919061362f565b60405180910390f35b34801561021b57600080fd5b5061022461080d565b604051610231919061364a565b60405180910390f35b34801561024657600080fd5b50610261600480360381019061025c919061305b565b61089f565b60405161026e919061358b565b60405180910390f35b34801561028357600080fd5b5061029e60048036038101906102999190612fc1565b6108e5565b005b3480156102ac57600080fd5b506102b56109fd565b6040516102c2919061394c565b60405180910390f35b3480156102d757600080fd5b506102f260048036038101906102ed9190612e4b565b610a0a565b005b34801561030057600080fd5b50610309610a6a565b604051610316919061394c565b60405180910390f35b34801561032b57600080fd5b5061034660048036038101906103419190612fc1565b610a70565b604051610353919061394c565b60405180910390f35b34801561036857600080fd5b50610371610b15565b60405161037e91906135a6565b60405180910390f35b34801561039357600080fd5b5061039c610b3b565b6040516103a9919061394c565b60405180910390f35b3480156103be57600080fd5b506103d960048036038101906103d49190612e4b565b610b41565b005b3480156103e757600080fd5b5061040260048036038101906103fd919061305b565b610b61565b005b34801561041057600080fd5b5061042b60048036038101906104269190612db1565b610c37565b604051610438919061360d565b60405180910390f35b34801561044d57600080fd5b506104686004803603810190610463919061305b565b610ce5565b604051610475919061362f565b60405180910390f35b34801561048a57600080fd5b506104a560048036038101906104a0919061305b565b610cf7565b6040516104b2919061394c565b60405180910390f35b3480156104c757600080fd5b506104e260048036038101906104dd9190613088565b610d68565b6040516104ef919061362f565b60405180910390f35b34801561050457600080fd5b5061051f600480360381019061051a919061305b565b610dc2565b60405161052c919061358b565b60405180910390f35b34801561054157600080fd5b5061055c60048036038101906105579190612db1565b610e49565b604051610569919061394c565b60405180910390f35b34801561057e57600080fd5b50610587610f01565b005b34801561059557600080fd5b5061059e610f15565b6040516105ab919061358b565b60405180910390f35b3480156105c057600080fd5b506105c9610f3f565b6040516105d6919061364a565b60405180910390f35b3480156105eb57600080fd5b5061060660048036038101906106019190612f21565b610fd1565b005b34801561061457600080fd5b5061062f600480360381019061062a919061305b565b610fe7565b005b34801561063d57600080fd5b5061065860048036038101906106539190612e9e565b611040565b005b34801561066657600080fd5b50610681600480360381019061067c919061305b565b6110a2565b60405161068e919061364a565b60405180910390f35b3480156106a357600080fd5b506106be60048036038101906106b9919061305b565b61118f565b6040516106cb919061358b565b60405180910390f35b6106ee60048036038101906106e99190612f61565b6111c2565b6040516106fb919061394c565b60405180910390f35b34801561071057600080fd5b5061072b60048036038101906107269190612e0b565b611467565b604051610738919061362f565b60405180910390f35b34801561074d57600080fd5b5061076860048036038101906107639190612db1565b6114fb565b005b34801561077657600080fd5b50610791600480360381019061078c9190612dde565b61157f565b005b60007f780e9d63000000000000000000000000000000000000000000000000000000007bffffffffffffffffffffffffffffffffffffffffffffffffffffffff1916827bffffffffffffffffffffffffffffffffffffffffffffffffffffffff19161480610806575061080582611612565b5b9050919050565b60606000805461081c90613bd9565b80601f016020809104026020016040519081016040528092919081815260200182805461084890613bd9565b80156108955780601f1061086a57610100808354040283529160200191610895565b820191906000526020600020905b81548152906001019060200180831161087857829003601f168201915b5050505050905090565b60006108aa826116f4565b6004600083815260200190815260200160002060009054906101000a900473ffffffffffffffffffffffffffffffffffffffff169050919050565b60006108f082610dc2565b90508073ffffffffffffffffffffffffffffffffffffffff168373ffffffffffffffffffffffffffffffffffffffff161415610961576040517f08c379a00000000000000000000000000000000000000000000000000000000081526004016109589061386c565b60405180910390fd5b8073ffffffffffffffffffffffffffffffffffffffff1661098061173f565b73ffffffffffffffffffffffffffffffffffffffff1614806109af57506109ae816109a961173f565b611467565b5b6109ee576040517f08c379a00000000000000000000000000000000000000000000000000000000081526004016109e59061388c565b60405180910390fd5b6109f88383611747565b505050565b6000600880549050905090565b610a1b610a1561173f565b82611800565b610a5a576040517f08c379a0000000000000000000000000000000000000000000000000000000008152600401610a519061366c565b60405180910390fd5b610a65838383611895565b505050565b60115481565b6000610a7b83610e49565b8210610abc576040517f08c379a0000000000000000000000000000000000000000000000000000000008152600401610ab3906136ac565b60405180910390fd5b600660008473ffffffffffffffffffffffffffffffffffffffff1673ffffffffffffffffffffffffffffffffffffffff168152602001908152602001600020600083815260200190815260200160002054905092915050565b601360009054906101000a900473ffffffffffffffffffffffffffffffffffffffff1681565b600f5481565b610b5c83838360405180602001604052806000815250611040565b505050565b6000610b6b61173f565b90508073ffffffffffffffffffffffffffffffffffffffff16610b8d83610dc2565b73ffffffffffffffffffffffffffffffffffffffff161480610bb55750610bb48282610d68565b5b610bf4576040517f08c379a0000000000000000000000000000000000000000000000000000000008152600401610beb9061374c565b60405180910390fd5b610bfd82611b8f565b6010600083815260200190815260200160002060006101000a81549073ffffffffffffffffffffffffffffffffffffffff02191690555050565b60606000610c4483610e49565b905060008167ffffffffffffffff811115610c6257610c61613d41565b5b604051908082528060200260200182016040528015610c905781602001602082028036833780820191505090505b50905060005b82811015610cda57610ca88582610a70565b828281518110610cbb57610cba613d12565b5b6020026020010181815250508080610cd290613c3c565b915050610c96565b508092505050919050565b6000610cf082611cdd565b9050919050565b6000610d016109fd565b8210610d42576040517f08c379a0000000000000000000000000000000000000000000000000000000008152600401610d39906138cc565b60405180910390fd5b60088281548110610d5657610d55613d12565b5b90600052602060002001549050919050565b6000610d7c610d7684610dc2565b83611467565b80610dba57508173ffffffffffffffffffffffffffffffffffffffff16610da28461089f565b73ffffffffffffffffffffffffffffffffffffffff16145b905092915050565b600080610dce83611d1e565b9050600073ffffffffffffffffffffffffffffffffffffffff168173ffffffffffffffffffffffffffffffffffffffff161415610e40576040517f08c379a0000000000000000000000000000000000000000000000000000000008152600401610e379061384c565b60405180910390fd5b80915050919050565b60008073ffffffffffffffffffffffffffffffffffffffff168273ffffffffffffffffffffffffffffffffffffffff161415610eba576040517f08c379a0000000000000000000000000000000000000000000000000000000008152600401610eb1906137ec565b60405180910390fd5b600360008373ffffffffffffffffffffffffffffffffffffffff1673ffffffffffffffffffffffffffffffffffffffff168152602001908152602001600020549050919050565b610f09611d5b565b610f136000611dd9565b565b6000600b60009054906101000a900473ffffffffffffffffffffffffffffffffffffffff16905090565b606060018054610f4e90613bd9565b80601f0160208091040260200160405190810160405280929190818152602001828054610f7a90613bd9565b8015610fc75780601f10610f9c57610100808354040283529160200191610fc7565b820191906000526020600020905b815481529060010190602001808311610faa57829003601f168201915b5050505050905090565b610fe3610fdc61173f565b8383611e9f565b5050565b610fef61200c565b610ff7611d5b565b806011819055507f2644fd26359c107ff7991b6dfc36ce902b334ce4e3891bbecacc5922aa620efa8160405161102d919061394c565b60405180910390a161103d61205c565b50565b61105161104b61173f565b83611800565b611090576040517f08c379a00000000000000000000000000000000000000000000000000000000081526004016110879061366c565b60405180910390fd5b61109c84848484612066565b50505050565b60606110ad82611cdd565b6110ec576040517f08c379a00000000000000000000000000000000000000000000000000000000081526004016110e39061376c565b60405180910390fd5b600e6000838152602001908152602001600020805461110a90613bd9565b80601f016020809104026020016040519081016040528092919081815260200182805461113690613bd9565b80156111835780601f1061115857610100808354040283529160200191611183565b820191906000526020600020905b81548152906001019060200180831161116657829003601f168201915b50505050509050919050565b60106020528060005260406000206000915054906101000a900473ffffffffffffffffffffffffffffffffffffffff1681565b6000601154341015611209576040517f08c379a00000000000000000000000000000000000000000000000000000000081526004016112009061368c565b60405180910390fd5b600d838360405161121b929190613572565b908152602001604051809103902060009054906101000a900460ff1615611277576040517f08c379a000000000000000000000000000000000000000000000000000000000815260040161126e906137cc565b60405180910390fd5b611289838361128461173f565b6120c2565b600c8383909180600181540180825580915050600190039060005260206000200160009091929091929091929091925091906112c6929190612bca565b506000600c8054905090508383600e600084815260200190815260200160002091906112f3929190612bca565b506001600f546113039190613a87565b600f819055506000600f54905061131a868261217d565b6001600d868660405161132e929190613572565b908152602001604051809103902060006101000a81548160ff021916908315150217905550601360009054906101000a900473ffffffffffffffffffffffffffffffffffffffff1673ffffffffffffffffffffffffffffffffffffffff166108fc349081150290604051600060405180830381858888f193505050501580156113bb573d6000803e3d6000fd5b506113c461173f565b6010600083815260200190815260200160002060006101000a81548173ffffffffffffffffffffffffffffffffffffffff021916908373ffffffffffffffffffffffffffffffffffffffff1602179055507f997115af5924f5e38964c6d65c804d4cb85129b65e62eb20a8ca6329dbe57e188187878761144261173f565b604051611453959493929190613967565b60405180910390a180925050509392505050565b6000600560008473ffffffffffffffffffffffffffffffffffffffff1673ffffffffffffffffffffffffffffffffffffffff16815260200190815260200160002060008373ffffffffffffffffffffffffffffffffffffffff1673ffffffffffffffffffffffffffffffffffffffff16815260200190815260200160002060009054906101000a900460ff16905092915050565b611503611d5b565b600073ffffffffffffffffffffffffffffffffffffffff168173ffffffffffffffffffffffffffffffffffffffff161415611573576040517f08c379a000000000000000000000000000000000000000000000000000000000815260040161156a906136ec565b60405180910390fd5b61157c81611dd9565b50565b61158761200c565b61158f611d5b565b80601360006101000a81548173ffffffffffffffffffffffffffffffffffffffff021916908373ffffffffffffffffffffffffffffffffffffffff1602179055507fe57e7c1f36cc83fade34e32351e6eee7eb9da532662b1b5da10c631e8222aca7816040516115ff91906135a6565b60405180910390a161160f61205c565b50565b60007f80ac58cd000000000000000000000000000000000000000000000000000000007bffffffffffffffffffffffffffffffffffffffffffffffffffffffff1916827bffffffffffffffffffffffffffffffffffffffffffffffffffffffff191614806116dd57507f5b5e139f000000000000000000000000000000000000000000000000000000007bffffffffffffffffffffffffffffffffffffffffffffffffffffffff1916827bffffffffffffffffffffffffffffffffffffffffffffffffffffffff1916145b806116ed57506116ec8261219b565b5b9050919050565b6116fd81611cdd565b61173c576040517f08c379a00000000000000000000000000000000000000000000000000000000081526004016117339061384c565b60405180910390fd5b50565b600033905090565b816004600083815260200190815260200160002060006101000a81548173ffffffffffffffffffffffffffffffffffffffff021916908373ffffffffffffffffffffffffffffffffffffffff160217905550808273ffffffffffffffffffffffffffffffffffffffff166117ba83610dc2565b73ffffffffffffffffffffffffffffffffffffffff167f8c5be1e5ebec7d5bd14f71427d1e84f3dd0314c0f7b2291e5b200ac8c7c3b92560405160405180910390a45050565b60008061180c83610dc2565b90508073ffffffffffffffffffffffffffffffffffffffff168473ffffffffffffffffffffffffffffffffffffffff16148061184e575061184d8185611467565b5b8061188c57508373ffffffffffffffffffffffffffffffffffffffff166118748461089f565b73ffffffffffffffffffffffffffffffffffffffff16145b91505092915050565b8273ffffffffffffffffffffffffffffffffffffffff166118b582610dc2565b73ffffffffffffffffffffffffffffffffffffffff161461190b576040517f08c379a00000000000000000000000000000000000000000000000000000000081526004016119029061370c565b60405180910390fd5b600073ffffffffffffffffffffffffffffffffffffffff168273ffffffffffffffffffffffffffffffffffffffff16141561197b576040517f08c379a00000000000000000000000000000000000000000000000000000000081526004016119729061378c565b60405180910390fd5b6119888383836001612205565b8273ffffffffffffffffffffffffffffffffffffffff166119a882610dc2565b73ffffffffffffffffffffffffffffffffffffffff16146119fe576040517f08c379a00000000000000000000000000000000000000000000000000000000081526004016119f59061370c565b60405180910390fd5b6004600082815260200190815260200160002060006101000a81549073ffffffffffffffffffffffffffffffffffffffff02191690556001600360008573ffffffffffffffffffffffffffffffffffffffff1673ffffffffffffffffffffffffffffffffffffffff168152602001908152602001600020600082825403925050819055506001600360008473ffffffffffffffffffffffffffffffffffffffff1673ffffffffffffffffffffffffffffffffffffffff16815260200190815260200160002060008282540192505081905550816002600083815260200190815260200160002060006101000a81548173ffffffffffffffffffffffffffffffffffffffff021916908373ffffffffffffffffffffffffffffffffffffffff160217905550808273ffffffffffffffffffffffffffffffffffffffff168473ffffffffffffffffffffffffffffffffffffffff167fddf252ad1be2c89b69c2b068fc378daa952ba7f163c4a11628f55a4df523b3ef60405160405180910390a4611b8a8383836001612365565b505050565b6000611b9a82610dc2565b9050611baa816000846001612205565b611bb382610dc2565b90506004600083815260200190815260200160002060006101000a81549073ffffffffffffffffffffffffffffffffffffffff02191690556001600360008373ffffffffffffffffffffffffffffffffffffffff1673ffffffffffffffffffffffffffffffffffffffff168152602001908152602001600020600082825403925050819055506002600083815260200190815260200160002060006101000a81549073ffffffffffffffffffffffffffffffffffffffff021916905581600073ffffffffffffffffffffffffffffffffffffffff168273ffffffffffffffffffffffffffffffffffffffff167fddf252ad1be2c89b69c2b068fc378daa952ba7f163c4a11628f55a4df523b3ef60405160405180910390a4611cd9816000846001612365565b5050565b60008073ffffffffffffffffffffffffffffffffffffffff16611cff83611d1e565b73ffffffffffffffffffffffffffffffffffffffff1614159050919050565b60006002600083815260200190815260200160002060009054906101000a900473ffffffffffffffffffffffffffffffffffffffff169050919050565b611d6361173f565b73ffffffffffffffffffffffffffffffffffffffff16611d81610f15565b73ffffffffffffffffffffffffffffffffffffffff1614611dd7576040517f08c379a0000000000000000000000000000000000000000000000000000000008152600401611dce9061382c565b60405180910390fd5b565b6000600b60009054906101000a900473ffffffffffffffffffffffffffffffffffffffff16905081600b60006101000a81548173ffffffffffffffffffffffffffffffffffffffff021916908373ffffffffffffffffffffffffffffffffffffffff1602179055508173ffffffffffffffffffffffffffffffffffffffff168173ffffffffffffffffffffffffffffffffffffffff167f8be0079c531659141344cd1fd0a4f28419497f9722a3daafe3b4186f6b6457e060405160405180910390a35050565b8173ffffffffffffffffffffffffffffffffffffffff168373ffffffffffffffffffffffffffffffffffffffff161415611f0e576040517f08c379a0000000000000000000000000000000000000000000000000000000008152600401611f05906137ac565b60405180910390fd5b80600560008573ffffffffffffffffffffffffffffffffffffffff1673ffffffffffffffffffffffffffffffffffffffff16815260200190815260200160002060008473ffffffffffffffffffffffffffffffffffffffff1673ffffffffffffffffffffffffffffffffffffffff16815260200190815260200160002060006101000a81548160ff0219169083151502179055508173ffffffffffffffffffffffffffffffffffffffff168373ffffffffffffffffffffffffffffffffffffffff167f17307eab39ab6107e8899845ad3d59bd9653f200f220920489ca2b5937696c3183604051611fff919061362f565b60405180910390a3505050565b6002600a541415612052576040517f08c379a00000000000000000000000000000000000000000000000000000000081526004016120499061390c565b60405180910390fd5b6002600a81905550565b6001600a81905550565b612071848484611895565b61207d8484848461236b565b6120bc576040517f08c379a00000000000000000000000000000000000000000000000000000000081526004016120b3906136cc565b60405180910390fd5b50505050565b60008383905011612108576040517f08c379a00000000000000000000000000000000000000000000000000000000081526004016120ff906138ac565b60405180910390fd5b600073ffffffffffffffffffffffffffffffffffffffff168173ffffffffffffffffffffffffffffffffffffffff161415612178576040517f08c379a000000000000000000000000000000000000000000000000000000000815260040161216f9061392c565b60405180910390fd5b505050565b612197828260405180602001604052806000815250612502565b5050565b60007f01ffc9a7000000000000000000000000000000000000000000000000000000007bffffffffffffffffffffffffffffffffffffffffffffffffffffffff1916827bffffffffffffffffffffffffffffffffffffffffffffffffffffffff1916149050919050565b6122118484848461255d565b6001811115612255576040517f08c379a000000000000000000000000000000000000000000000000000000000815260040161224c906138ec565b60405180910390fd5b6000829050600073ffffffffffffffffffffffffffffffffffffffff168573ffffffffffffffffffffffffffffffffffffffff16141561229d5761229881612683565b6122dc565b8373ffffffffffffffffffffffffffffffffffffffff168573ffffffffffffffffffffffffffffffffffffffff16146122db576122da85826126cc565b5b5b600073ffffffffffffffffffffffffffffffffffffffff168473ffffffffffffffffffffffffffffffffffffffff16141561231f5761231a81612839565b61235e565b8473ffffffffffffffffffffffffffffffffffffffff168473ffffffffffffffffffffffffffffffffffffffff161461235d5761235c848261290a565b5b5b5050505050565b50505050565b600061238c8473ffffffffffffffffffffffffffffffffffffffff16612989565b156124f5578373ffffffffffffffffffffffffffffffffffffffff1663150b7a026123b561173f565b8786866040518563ffffffff1660e01b81526004016123d794939291906135c1565b602060405180830381600087803b1580156123f157600080fd5b505af192505050801561242257506040513d601f19601f8201168201806040525081019061241f919061302e565b60015b6124a5573d8060008114612452576040519150601f19603f3d011682016040523d82523d6000602084013e612457565b606091505b5060008151141561249d576040517f08c379a0000000000000000000000000000000000000000000000000000000008152600401612494906136cc565b60405180910390fd5b805181602001fd5b63150b7a0260e01b7bffffffffffffffffffffffffffffffffffffffffffffffffffffffff1916817bffffffffffffffffffffffffffffffffffffffffffffffffffffffff1916149150506124fa565b600190505b949350505050565b61250c83836129ac565b612519600084848461236b565b612558576040517f08c379a000000000000000000000000000000000000000000000000000000000815260040161254f906136cc565b60405180910390fd5b505050565b600181111561267d57600073ffffffffffffffffffffffffffffffffffffffff168473ffffffffffffffffffffffffffffffffffffffff16146125f15780600360008673ffffffffffffffffffffffffffffffffffffffff1673ffffffffffffffffffffffffffffffffffffffff16815260200190815260200160002060008282546125e99190613add565b925050819055505b600073ffffffffffffffffffffffffffffffffffffffff168373ffffffffffffffffffffffffffffffffffffffff161461267c5780600360008573ffffffffffffffffffffffffffffffffffffffff1673ffffffffffffffffffffffffffffffffffffffff16815260200190815260200160002060008282546126749190613a87565b925050819055505b5b50505050565b6008805490506009600083815260200190815260200160002081905550600881908060018154018082558091505060019003906000526020600020016000909190919091505550565b600060016126d984610e49565b6126e39190613add565b90506000600760008481526020019081526020016000205490508181146127c8576000600660008673ffffffffffffffffffffffffffffffffffffffff1673ffffffffffffffffffffffffffffffffffffffff168152602001908152602001600020600084815260200190815260200160002054905080600660008773ffffffffffffffffffffffffffffffffffffffff1673ffffffffffffffffffffffffffffffffffffffff168152602001908152602001600020600084815260200190815260200160002081905550816007600083815260200190815260200160002081905550505b6007600084815260200190815260200160002060009055600660008573ffffffffffffffffffffffffffffffffffffffff1673ffffffffffffffffffffffffffffffffffffffff16815260200190815260200160002060008381526020019081526020016000206000905550505050565b6000600160088054905061284d9190613add565b905060006009600084815260200190815260200160002054905060006008838154811061287d5761287c613d12565b5b90600052602060002001549050806008838154811061289f5761289e613d12565b5b9060005260206000200181905550816009600083815260200190815260200160002081905550600960008581526020019081526020016000206000905560088054806128ee576128ed613ce3565b5b6001900381819060005260206000200160009055905550505050565b600061291583610e49565b905081600660008573ffffffffffffffffffffffffffffffffffffffff1673ffffffffffffffffffffffffffffffffffffffff168152602001908152602001600020600083815260200190815260200160002081905550806007600084815260200190815260200160002081905550505050565b6000808273ffffffffffffffffffffffffffffffffffffffff163b119050919050565b600073ffffffffffffffffffffffffffffffffffffffff168273ffffffffffffffffffffffffffffffffffffffff161415612a1c576040517f08c379a0000000000000000000000000000000000000000000000000000000008152600401612a139061380c565b60405180910390fd5b612a2581611cdd565b15612a65576040517f08c379a0000000000000000000000000000000000000000000000000000000008152600401612a5c9061372c565b60405180910390fd5b612a73600083836001612205565b612a7c81611cdd565b15612abc576040517f08c379a0000000000000000000000000000000000000000000000000000000008152600401612ab39061372c565b60405180910390fd5b6001600360008473ffffffffffffffffffffffffffffffffffffffff1673ffffffffffffffffffffffffffffffffffffffff16815260200190815260200160002060008282540192505081905550816002600083815260200190815260200160002060006101000a81548173ffffffffffffffffffffffffffffffffffffffff021916908373ffffffffffffffffffffffffffffffffffffffff160217905550808273ffffffffffffffffffffffffffffffffffffffff16600073ffffffffffffffffffffffffffffffffffffffff167fddf252ad1be2c89b69c2b068fc378daa952ba7f163c4a11628f55a4df523b3ef60405160405180910390a4612bc6600083836001612365565b5050565b828054612bd690613bd9565b90600052602060002090601f016020900481019282612bf85760008555612c3f565b82601f10612c1157803560ff1916838001178555612c3f565b82800160010185558215612c3f579182015b82811115612c3e578235825591602001919060010190612c23565b5b509050612c4c9190612c50565b5090565b5b80821115612c69576000816000905550600101612c51565b5090565b6000612c80612c7b846139da565b6139b5565b905082815260208101848484011115612c9c57612c9b613d7f565b5b612ca7848285613b97565b509392505050565b600081359050612cbe8161433c565b92915050565b600081359050612cd381614353565b92915050565b600081359050612ce88161436a565b92915050565b600081359050612cfd81614381565b92915050565b600081519050612d1281614381565b92915050565b600082601f830112612d2d57612d2c613d75565b5b8135612d3d848260208601612c6d565b91505092915050565b60008083601f840112612d5c57612d5b613d75565b5b8235905067ffffffffffffffff811115612d7957612d78613d70565b5b602083019150836001820283011115612d9557612d94613d7a565b5b9250929050565b600081359050612dab81614398565b92915050565b600060208284031215612dc757612dc6613d89565b5b6000612dd584828501612caf565b91505092915050565b600060208284031215612df457612df3613d89565b5b6000612e0284828501612cc4565b91505092915050565b60008060408385031215612e2257612e21613d89565b5b6000612e3085828601612caf565b9250506020612e4185828601612caf565b9150509250929050565b600080600060608486031215612e6457612e63613d89565b5b6000612e7286828701612caf565b9350506020612e8386828701612caf565b9250506040612e9486828701612d9c565b9150509250925092565b60008060008060808587031215612eb857612eb7613d89565b5b6000612ec687828801612caf565b9450506020612ed787828801612caf565b9350506040612ee887828801612d9c565b925050606085013567ffffffffffffffff811115612f0957612f08613d84565b5b612f1587828801612d18565b91505092959194509250565b60008060408385031215612f3857612f37613d89565b5b6000612f4685828601612caf565b9250506020612f5785828601612cd9565b9150509250929050565b600080600060408486031215612f7a57612f79613d89565b5b6000612f8886828701612caf565b935050602084013567ffffffffffffffff811115612fa957612fa8613d84565b5b612fb586828701612d46565b92509250509250925092565b60008060408385031215612fd857612fd7613d89565b5b6000612fe685828601612caf565b9250506020612ff785828601612d9c565b9150509250929050565b60006020828403121561301757613016613d89565b5b600061302584828501612cee565b91505092915050565b60006020828403121561304457613043613d89565b5b600061305284828501612d03565b91505092915050565b60006020828403121561307157613070613d89565b5b600061307f84828501612d9c565b91505092915050565b6000806040838503121561309f5761309e613d89565b5b60006130ad85828601612d9c565b92505060206130be85828601612caf565b9150509250929050565b60006130d48383613554565b60208301905092915050565b6130e981613b23565b82525050565b6130f881613b11565b82525050565b600061310982613a1b565b6131138185613a49565b935061311e83613a0b565b8060005b8381101561314f57815161313688826130c8565b975061314183613a3c565b925050600181019050613122565b5085935050505092915050565b61316581613b35565b82525050565b600061317682613a26565b6131808185613a5a565b9350613190818560208601613ba6565b61319981613d8e565b840191505092915050565b60006131b08385613a6b565b93506131bd838584613b97565b6131c683613d8e565b840190509392505050565b60006131dd8385613a7c565b93506131ea838584613b97565b82840190509392505050565b600061320182613a31565b61320b8185613a6b565b935061321b818560208601613ba6565b61322481613d8e565b840191505092915050565b600061323c602d83613a6b565b915061324782613d9f565b604082019050919050565b600061325f601b83613a6b565b915061326a82613dee565b602082019050919050565b6000613282602b83613a6b565b915061328d82613e17565b604082019050919050565b60006132a5603283613a6b565b91506132b082613e66565b604082019050919050565b60006132c8602683613a6b565b91506132d382613eb5565b604082019050919050565b60006132eb602583613a6b565b91506132f682613f04565b604082019050919050565b600061330e601c83613a6b565b915061331982613f53565b602082019050919050565b6000613331601e83613a6b565b915061333c82613f7c565b602082019050919050565b6000613354601683613a6b565b915061335f82613fa5565b602082019050919050565b6000613377602483613a6b565b915061338282613fce565b604082019050919050565b600061339a601983613a6b565b91506133a58261401d565b602082019050919050565b60006133bd601e83613a6b565b91506133c882614046565b602082019050919050565b60006133e0602983613a6b565b91506133eb8261406f565b604082019050919050565b6000613403602083613a6b565b915061340e826140be565b602082019050919050565b6000613426602083613a6b565b9150613431826140e7565b602082019050919050565b6000613449601883613a6b565b915061345482614110565b602082019050919050565b600061346c602183613a6b565b915061347782614139565b604082019050919050565b600061348f603d83613a6b565b915061349a82614188565b604082019050919050565b60006134b2602d83613a6b565b91506134bd826141d7565b604082019050919050565b60006134d5602c83613a6b565b91506134e082614226565b604082019050919050565b60006134f8603583613a6b565b915061350382614275565b604082019050919050565b600061351b601f83613a6b565b9150613526826142c4565b602082019050919050565b600061353e603383613a6b565b9150613549826142ed565b604082019050919050565b61355d81613b8d565b82525050565b61356c81613b8d565b82525050565b600061357f8284866131d1565b91508190509392505050565b60006020820190506135a060008301846130ef565b92915050565b60006020820190506135bb60008301846130e0565b92915050565b60006080820190506135d660008301876130ef565b6135e360208301866130ef565b6135f06040830185613563565b8181036060830152613602818461316b565b905095945050505050565b6000602082019050818103600083015261362781846130fe565b905092915050565b6000602082019050613644600083018461315c565b92915050565b6000602082019050818103600083015261366481846131f6565b905092915050565b600060208201905081810360008301526136858161322f565b9050919050565b600060208201905081810360008301526136a581613252565b9050919050565b600060208201905081810360008301526136c581613275565b9050919050565b600060208201905081810360008301526136e581613298565b9050919050565b60006020820190508181036000830152613705816132bb565b9050919050565b60006020820190508181036000830152613725816132de565b9050919050565b6000602082019050818103600083015261374581613301565b9050919050565b6000602082019050818103600083015261376581613324565b9050919050565b6000602082019050818103600083015261378581613347565b9050919050565b600060208201905081810360008301526137a58161336a565b9050919050565b600060208201905081810360008301526137c58161338d565b9050919050565b600060208201905081810360008301526137e5816133b0565b9050919050565b60006020820190508181036000830152613805816133d3565b9050919050565b60006020820190508181036000830152613825816133f6565b9050919050565b6000602082019050818103600083015261384581613419565b9050919050565b600060208201905081810360008301526138658161343c565b9050919050565b600060208201905081810360008301526138858161345f565b9050919050565b600060208201905081810360008301526138a581613482565b9050919050565b600060208201905081810360008301526138c5816134a5565b9050919050565b600060208201905081810360008301526138e5816134c8565b9050919050565b60006020820190508181036000830152613905816134eb565b9050919050565b600060208201905081810360008301526139258161350e565b9050919050565b6000602082019050818103600083015261394581613531565b9050919050565b60006020820190506139616000830184613563565b92915050565b600060808201905061397c6000830188613563565b61398960208301876130ef565b818103604083015261399c8185876131a4565b90506139ab60608301846130ef565b9695505050505050565b60006139bf6139d0565b90506139cb8282613c0b565b919050565b6000604051905090565b600067ffffffffffffffff8211156139f5576139f4613d41565b5b6139fe82613d8e565b9050602081019050919050565b6000819050602082019050919050565b600081519050919050565b600081519050919050565b600081519050919050565b6000602082019050919050565b600082825260208201905092915050565b600082825260208201905092915050565b600082825260208201905092915050565b600081905092915050565b6000613a9282613b8d565b9150613a9d83613b8d565b9250827fffffffffffffffffffffffffffffffffffffffffffffffffffffffffffffffff03821115613ad257613ad1613c85565b5b828201905092915050565b6000613ae882613b8d565b9150613af383613b8d565b925082821015613b0657613b05613c85565b5b828203905092915050565b6000613b1c82613b6d565b9050919050565b6000613b2e82613b6d565b9050919050565b60008115159050919050565b60007fffffffff0000000000000000000000000000000000000000000000000000000082169050919050565b600073ffffffffffffffffffffffffffffffffffffffff82169050919050565b6000819050919050565b82818337600083830152505050565b60005b83811015613bc4578082015181840152602081019050613ba9565b83811115613bd3576000848401525b50505050565b60006002820490506001821680613bf157607f821691505b60208210811415613c0557613c04613cb4565b5b50919050565b613c1482613d8e565b810181811067ffffffffffffffff82111715613c3357613c32613d41565b5b80604052505050565b6000613c4782613b8d565b91507fffffffffffffffffffffffffffffffffffffffffffffffffffffffffffffffff821415613c7a57613c79613c85565b5b600182019050919050565b7f4e487b7100000000000000000000000000000000000000000000000000000000600052601160045260246000fd5b7f4e487b7100000000000000000000000000000000000000000000000000000000600052602260045260246000fd5b7f4e487b7100000000000000000000000000000000000000000000000000000000600052603160045260246000fd5b7f4e487b7100000000000000000000000000000000000000000000000000000000600052603260045260246000fd5b7f4e487b7100000000000000000000000000000000000000000000000000000000600052604160045260246000fd5b600080fd5b600080fd5b600080fd5b600080fd5b600080fd5b600080fd5b6000601f19601f8301169050919050565b7f4552433732313a2063616c6c6572206973206e6f7420746f6b656e206f776e6560008201527f72206f7220617070726f76656400000000000000000000000000000000000000602082015250565b7f496e73756666696369656e742066756e647320746f206d696e742e0000000000600082015250565b7f455243373231456e756d657261626c653a206f776e657220696e646578206f7560008201527f74206f6620626f756e6473000000000000000000000000000000000000000000602082015250565b7f4552433732313a207472616e7366657220746f206e6f6e20455243373231526560008201527f63656976657220696d706c656d656e7465720000000000000000000000000000602082015250565b7f4f776e61626c653a206e6577206f776e657220697320746865207a65726f206160008201527f6464726573730000000000000000000000000000000000000000000000000000602082015250565b7f4552433732313a207472616e736665722066726f6d20696e636f72726563742060008201527f6f776e6572000000000000000000000000000000000000000000000000000000602082015250565b7f4552433732313a20746f6b656e20616c7265616479206d696e74656400000000600082015250565b7f4f6e6c79206761726d656e74206f776e6572206f7220617070726f7665640000600082015250565b7f546f6b656e20555249206973206e6f7420657869737400000000000000000000600082015250565b7f4552433732313a207472616e7366657220746f20746865207a65726f2061646460008201527f7265737300000000000000000000000000000000000000000000000000000000602082015250565b7f4552433732313a20617070726f766520746f2063616c6c657200000000000000600082015250565b7f54686520746f6b656e205552492073686f756c6420626520756e697175650000600082015250565b7f4552433732313a2061646472657373207a65726f206973206e6f74206120766160008201527f6c6964206f776e65720000000000000000000000000000000000000000000000602082015250565b7f4552433732313a206d696e7420746f20746865207a65726f2061646472657373600082015250565b7f4f776e61626c653a2063616c6c6572206973206e6f7420746865206f776e6572600082015250565b7f4552433732313a20696e76616c696420746f6b656e2049440000000000000000600082015250565b7f4552433732313a20617070726f76616c20746f2063757272656e74206f776e6560008201527f7200000000000000000000000000000000000000000000000000000000000000602082015250565b7f4552433732313a20617070726f76652063616c6c6572206973206e6f7420746f60008201527f6b656e206f776e6572206f7220617070726f76656420666f7220616c6c000000602082015250565b7f5f6173736572744d696e74696e67506172616d7356616c69643a20546f6b656e60008201527f2055524920697320656d70747900000000000000000000000000000000000000602082015250565b7f455243373231456e756d657261626c653a20676c6f62616c20696e646578206f60008201527f7574206f6620626f756e64730000000000000000000000000000000000000000602082015250565b7f455243373231456e756d657261626c653a20636f6e736563757469766520747260008201527f616e7366657273206e6f7420737570706f727465640000000000000000000000602082015250565b7f5265656e7472616e637947756172643a207265656e7472616e742063616c6c00600082015250565b7f5f6173736572744d696e74696e67506172616d7356616c69643a20446573696760008201527f6e6572206973207a65726f206164647265737300000000000000000000000000602082015250565b61434581613b11565b811461435057600080fd5b50565b61435c81613b23565b811461436757600080fd5b50565b61437381613b35565b811461437e57600080fd5b50565b61438a81613b41565b811461439557600080fd5b50565b6143a181613b8d565b81146143ac57600080fd5b5056fea2646970667358221220ed47d8475677b91e0034c06161bf807aff7db0de2600c50c98f8d8da013df49364736f6c63430008070033",
  "linkReferences": {},
  "deployedLinkReferences": {}
}