{
  "_format": "hh-sol-artifact-1",
  "contractName": "HexaMarketplace",
  "sourceName": "contracts/HexaMarketplace.sol",
  "abi": [
    {
      "inputs": [
        {
          "internalType": "address payable",
          "name": "_feeRecipient",
          "type": "address"
        },
        {
          "internalType": "uint256",
          "name": "_platformFee",
          "type": "uint256"
        }
      ],
      "stateMutability": "nonpayable",
      "type": "constructor"
    },
    {
      "anonymous": false,
      "inputs": [
        {
          "indexed": true,
          "internalType": "address",
          "name": "owner",
          "type": "address"
        },
        {
          "indexed": true,
          "internalType": "address",
          "name": "nft",
          "type": "address"
        },
        {
          "indexed": false,
          "internalType": "uint256",
          "name": "tokenId",
          "type": "uint256"
        }
      ],
      "name": "ItemCanceled",
      "type": "event"
    },
    {
      "anonymous": false,
      "inputs": [
        {
          "indexed": true,
          "internalType": "address",
          "name": "owner",
          "type": "address"
        },
        {
          "indexed": true,
          "internalType": "address",
          "name": "nft",
          "type": "address"
        },
        {
          "indexed": false,
          "internalType": "uint256",
          "name": "tokenId",
          "type": "uint256"
        },
        {
          "indexed": false,
          "internalType": "uint256",
          "name": "quantity",
          "type": "uint256"
        },
        {
          "indexed": false,
          "internalType": "uint256",
          "name": "pricePerItem",
          "type": "uint256"
        },
        {
          "indexed": false,
          "internalType": "uint256",
          "name": "startingTime",
          "type": "uint256"
        }
      ],
      "name": "ItemListed",
      "type": "event"
    },
    {
      "anonymous": false,
      "inputs": [
        {
          "indexed": true,
          "internalType": "address",
          "name": "seller",
          "type": "address"
        },
        {
          "indexed": true,
          "internalType": "address",
          "name": "buyer",
          "type": "address"
        },
        {
          "indexed": true,
          "internalType": "address",
          "name": "nft",
          "type": "address"
        },
        {
          "indexed": false,
          "internalType": "uint256",
          "name": "tokenId",
          "type": "uint256"
        },
        {
          "indexed": false,
          "internalType": "uint256",
          "name": "quantity",
          "type": "uint256"
        },
        {
          "indexed": false,
          "internalType": "uint256",
          "name": "pricePerItem",
          "type": "uint256"
        }
      ],
      "name": "ItemSold",
      "type": "event"
    },
    {
      "anonymous": false,
      "inputs": [
        {
          "indexed": true,
          "internalType": "address",
          "name": "owner",
          "type": "address"
        },
        {
          "indexed": true,
          "internalType": "address",
          "name": "nft",
          "type": "address"
        },
        {
          "indexed": false,
          "internalType": "uint256",
          "name": "tokenId",
          "type": "uint256"
        },
        {
          "indexed": false,
          "internalType": "uint256",
          "name": "newPrice",
          "type": "uint256"
        }
      ],
      "name": "ItemUpdated",
      "type": "event"
    },
    {
      "anonymous": false,
      "inputs": [
        {
          "indexed": true,
          "internalType": "address",
          "name": "creator",
          "type": "address"
        },
        {
          "indexed": true,
          "internalType": "address",
          "name": "nft",
          "type": "address"
        },
        {
          "indexed": false,
          "internalType": "uint256",
          "name": "tokenId",
          "type": "uint256"
        }
      ],
      "name": "OfferCanceled",
      "type": "event"
    },
    {
      "anonymous": false,
      "inputs": [
        {
          "indexed": true,
          "internalType": "address",
          "name": "creator",
          "type": "address"
        },
        {
          "indexed": true,
          "internalType": "address",
          "name": "nft",
          "type": "address"
        },
        {
          "indexed": false,
          "internalType": "uint256",
          "name": "tokenId",
          "type": "uint256"
        },
        {
          "indexed": false,
          "internalType": "uint256",
          "name": "quantity",
          "type": "uint256"
        },
        {
          "indexed": false,
          "internalType": "address",
          "name": "payToken",
          "type": "address"
        },
        {
          "indexed": false,
          "internalType": "uint256",
          "name": "pricePerItem",
          "type": "uint256"
        },
        {
          "indexed": false,
          "internalType": "uint256",
          "name": "deadline",
          "type": "uint256"
        }
      ],
      "name": "OfferCreated",
      "type": "event"
    },
    {
      "anonymous": false,
      "inputs": [
        {
          "indexed": false,
          "internalType": "uint16",
          "name": "platformFee",
          "type": "uint16"
        }
      ],
      "name": "UpdatePlatformFee",
      "type": "event"
    },
    {
      "anonymous": false,
      "inputs": [
        {
          "indexed": false,
          "internalType": "address payable",
          "name": "platformFeeRecipient",
          "type": "address"
        }
      ],
      "name": "UpdatePlatformFeeRecipient",
      "type": "event"
    },
    {
      "inputs": [
        {
          "internalType": "address",
          "name": "_nftAddress",
          "type": "address"
        },
        {
          "internalType": "uint256",
          "name": "_tokenId",
          "type": "uint256"
        },
        {
          "internalType": "address",
          "name": "_creator",
          "type": "address"
        }
      ],
      "name": "acceptOffer",
      "outputs": [],
      "stateMutability": "nonpayable",
      "type": "function"
    },
    {
      "inputs": [],
      "name": "admin",
      "outputs": [
        {
          "internalType": "address",
          "name": "",
          "type": "address"
        }
      ],
      "stateMutability": "view",
      "type": "function"
    },
    {
      "inputs": [
        {
          "internalType": "address",
          "name": "_nftAddress",
          "type": "address"
        },
        {
          "internalType": "uint256",
          "name": "_tokenId",
          "type": "uint256"
        },
        {
          "internalType": "address",
          "name": "_owner",
          "type": "address"
        }
      ],
      "name": "buyItem",
      "outputs": [],
      "stateMutability": "payable",
      "type": "function"
    },
    {
      "inputs": [
        {
          "internalType": "address",
          "name": "_nftAddress",
          "type": "address"
        },
        {
          "internalType": "uint256",
          "name": "_tokenId",
          "type": "uint256"
        }
      ],
      "name": "cancelListing",
      "outputs": [],
      "stateMutability": "nonpayable",
      "type": "function"
    },
    {
      "inputs": [
        {
          "internalType": "address",
          "name": "_nftAddress",
          "type": "address"
        },
        {
          "internalType": "uint256",
          "name": "_tokenId",
          "type": "uint256"
        }
      ],
      "name": "cancelOffer",
      "outputs": [],
      "stateMutability": "nonpayable",
      "type": "function"
    },
    {
      "inputs": [
        {
          "internalType": "address",
          "name": "",
          "type": "address"
        }
      ],
      "name": "collectionRoyalties",
      "outputs": [
        {
          "internalType": "uint16",
          "name": "royalty",
          "type": "uint16"
        },
        {
          "internalType": "address",
          "name": "creator",
          "type": "address"
        },
        {
          "internalType": "address",
          "name": "feeRecipient",
          "type": "address"
        }
      ],
      "stateMutability": "view",
      "type": "function"
    },
    {
      "inputs": [
        {
          "internalType": "address",
          "name": "_nftAddress",
          "type": "address"
        },
        {
          "internalType": "uint256",
          "name": "_tokenId",
          "type": "uint256"
        },
        {
          "internalType": "contract IERC20",
          "name": "_payToken",
          "type": "address"
        },
        {
          "internalType": "uint256",
          "name": "_quantity",
          "type": "uint256"
        },
        {
          "internalType": "uint256",
          "name": "_pricePerItem",
          "type": "uint256"
        },
        {
          "internalType": "uint256",
          "name": "_deadline",
          "type": "uint256"
        }
      ],
      "name": "createOffer",
      "outputs": [],
      "stateMutability": "nonpayable",
      "type": "function"
    },
    {
      "inputs": [
        {
          "internalType": "uint256",
          "name": "",
          "type": "uint256"
        }
      ],
      "name": "directoffer",
      "outputs": [
        {
          "internalType": "contract IERC20",
          "name": "payToken",
          "type": "address"
        },
        {
          "internalType": "uint256",
          "name": "pricePerItem",
          "type": "uint256"
        },
        {
          "internalType": "uint256",
          "name": "deadline",
          "type": "uint256"
        },
        {
          "internalType": "address",
          "name": "offerer",
          "type": "address"
        }
      ],
      "stateMutability": "view",
      "type": "function"
    },
    {
      "inputs": [],
      "name": "feeReceipient",
      "outputs": [
        {
          "internalType": "address payable",
          "name": "",
          "type": "address"
        }
      ],
      "stateMutability": "view",
      "type": "function"
    },
    {
      "inputs": [
        {
          "internalType": "address",
          "name": "_nftAddress",
          "type": "address"
        },
        {
          "internalType": "uint256",
          "name": "_tokenId",
          "type": "uint256"
        },
        {
          "internalType": "uint256",
          "name": "_quantity",
          "type": "uint256"
        },
        {
          "internalType": "uint256",
          "name": "_pricePerItem",
          "type": "uint256"
        },
        {
          "internalType": "uint256",
          "name": "_startingTime",
          "type": "uint256"
        }
      ],
      "name": "listItem",
      "outputs": [],
      "stateMutability": "payable",
      "type": "function"
    },
    {
      "inputs": [
        {
          "internalType": "address",
          "name": "",
          "type": "address"
        },
        {
          "internalType": "uint256",
          "name": "",
          "type": "uint256"
        },
        {
          "internalType": "address",
          "name": "",
          "type": "address"
        }
      ],
      "name": "listings",
      "outputs": [
        {
          "internalType": "uint256",
          "name": "quantity",
          "type": "uint256"
        },
        {
          "internalType": "uint256",
          "name": "pricePerItem",
          "type": "uint256"
        },
        {
          "internalType": "uint256",
          "name": "startingTime",
          "type": "uint256"
        }
      ],
      "stateMutability": "view",
      "type": "function"
    },
    {
      "inputs": [
        {
          "internalType": "address",
          "name": "",
          "type": "address"
        },
        {
          "internalType": "uint256",
          "name": "",
          "type": "uint256"
        }
      ],
      "name": "minters",
      "outputs": [
        {
          "internalType": "address",
          "name": "",
          "type": "address"
        }
      ],
      "stateMutability": "view",
      "type": "function"
    },
    {
      "inputs": [
        {
          "internalType": "address",
          "name": "",
          "type": "address"
        },
        {
          "internalType": "uint256",
          "name": "",
          "type": "uint256"
        },
        {
          "internalType": "address",
          "name": "",
          "type": "address"
        }
      ],
      "name": "offers",
      "outputs": [
        {
          "internalType": "contract IERC20",
          "name": "payToken",
          "type": "address"
        },
        {
          "internalType": "uint256",
          "name": "quantity",
          "type": "uint256"
        },
        {
          "internalType": "uint256",
          "name": "pricePerItem",
          "type": "uint256"
        },
        {
          "internalType": "uint256",
          "name": "deadline",
          "type": "uint256"
        }
      ],
      "stateMutability": "view",
      "type": "function"
    },
    {
      "inputs": [],
      "name": "platformFee",
      "outputs": [
        {
          "internalType": "uint256",
          "name": "",
          "type": "uint256"
        }
      ],
      "stateMutability": "view",
      "type": "function"
    },
    {
      "inputs": [
        {
          "internalType": "address",
          "name": "_nftAddress",
          "type": "address"
        },
        {
          "internalType": "address",
          "name": "_creator",
          "type": "address"
        },
        {
          "internalType": "uint16",
          "name": "_royalty",
          "type": "uint16"
        },
        {
          "internalType": "address",
          "name": "_feeRecipient",
          "type": "address"
        }
      ],
      "name": "registerCollectionRoyalty",
      "outputs": [],
      "stateMutability": "nonpayable",
      "type": "function"
    },
    {
      "inputs": [
        {
          "internalType": "address",
          "name": "_nftAddress",
          "type": "address"
        },
        {
          "internalType": "uint256",
          "name": "_tokenId",
          "type": "uint256"
        },
        {
          "internalType": "uint16",
          "name": "_royalty",
          "type": "uint16"
        }
      ],
      "name": "registerRoyalty",
      "outputs": [],
      "stateMutability": "nonpayable",
      "type": "function"
    },
    {
      "inputs": [
        {
          "internalType": "address",
          "name": "",
          "type": "address"
        },
        {
          "internalType": "uint256",
          "name": "",
          "type": "uint256"
        }
      ],
      "name": "royalties",
      "outputs": [
        {
          "internalType": "uint16",
          "name": "",
          "type": "uint16"
        }
      ],
      "stateMutability": "view",
      "type": "function"
    },
    {
      "inputs": [
        {
          "internalType": "address",
          "name": "_nftAddress",
          "type": "address"
        },
        {
          "internalType": "uint256",
          "name": "_tokenId",
          "type": "uint256"
        },
        {
          "internalType": "uint256",
          "name": "_newPrice",
          "type": "uint256"
        }
      ],
      "name": "updateListing",
      "outputs": [],
      "stateMutability": "nonpayable",
      "type": "function"
    },
    {
      "inputs": [
        {
          "internalType": "uint16",
          "name": "_platformFee",
          "type": "uint16"
        }
      ],
      "name": "updatePlatformFee",
      "outputs": [],
      "stateMutability": "nonpayable",
      "type": "function"
    },
    {
      "inputs": [
        {
          "internalType": "address payable",
          "name": "_platformFeeRecipient",
          "type": "address"
        }
      ],
      "name": "updatePlatformFeeRecipient",
      "outputs": [],
      "stateMutability": "nonpayable",
      "type": "function"
    }
  ],
  "bytecode": "0x60806040523480156200001157600080fd5b506040516200547a3803806200547a8339818101604052810190620000379190620000f6565b8060058190555081600760006101000a81548173ffffffffffffffffffffffffffffffffffffffff021916908373ffffffffffffffffffffffffffffffffffffffff16021790555033600660006101000a81548173ffffffffffffffffffffffffffffffffffffffff021916908373ffffffffffffffffffffffffffffffffffffffff1602179055505050620001b4565b600081519050620000d98162000180565b92915050565b600081519050620000f0816200019a565b92915050565b6000806040838503121562000110576200010f6200017b565b5b60006200012085828601620000c8565b92505060206200013385828601620000df565b9150509250929050565b60006200014a8262000151565b9050919050565b600073ffffffffffffffffffffffffffffffffffffffff82169050919050565b6000819050919050565b600080fd5b6200018b816200013d565b81146200019757600080fd5b50565b620001a58162000171565b8114620001b157600080fd5b50565b6152b680620001c46000396000f3fe60806040526004361061011f5760003560e01c8063afb06952116100a0578063e1e549c411610064578063e1e549c4146103e3578063f3880b6e14610420578063f5fe7f7114610449578063f772adf114610472578063f851a4401461049b5761011f565b8063afb069521461030c578063b100bcdb14610335578063b2ddee0614610351578063c1661a9a1461037a578063d3f494cc146103a35761011f565b80633bbb2806116100e75780633bbb2806146101ff57806342cbb4b81461022857806357b275b4146102515780636bd3a64b1461029057806378746d0d146102cf5761011f565b8063058a56ac14610124578063259ca3651461014d57806326232a2e146101695780633740ebb3146101945780633b09b315146101bf575b600080fd5b34801561013057600080fd5b5061014b6004803603810190610146919061416e565b6104c6565b005b610167600480360381019061016291906141ae565b6107e6565b005b34801561017557600080fd5b5061017e610a1d565b60405161018b9190614b7c565b60405180910390f35b3480156101a057600080fd5b506101a9610a23565b6040516101b69190614750565b60405180910390f35b3480156101cb57600080fd5b506101e660048036038101906101e19190614409565b610a49565b6040516101f694939291906148a0565b60405180910390f35b34801561020b57600080fd5b50610226600480360381019061022191906141ae565b610ab9565b005b34801561023457600080fd5b5061024f600480360381019061024a9190614201565b610c3d565b005b34801561025d57600080fd5b5061027860048036038101906102739190614080565b611206565b60405161028793929190614b45565b60405180910390f35b34801561029c57600080fd5b506102b760048036038101906102b291906141ae565b61127e565b6040516102c693929190614c13565b60405180910390f35b3480156102db57600080fd5b506102f660048036038101906102f1919061416e565b6112c2565b6040516103039190614735565b60405180910390f35b34801561031857600080fd5b50610333600480360381019061032e91906143dc565b611304565b005b61034f600480360381019061034a9190614334565b6113d9565b005b34801561035d57600080fd5b506103786004803603810190610373919061416e565b611ba1565b005b34801561038657600080fd5b506103a1600480360381019061039c9190614107565b611cb8565b005b3480156103af57600080fd5b506103ca60048036038101906103c591906141ae565b6120ba565b6040516103da94939291906148e5565b60405180910390f35b3480156103ef57600080fd5b5061040a6004803603810190610405919061416e565b612124565b6040516104179190614b2a565b60405180910390f35b34801561042c57600080fd5b506104476004803603810190610442919061428e565b612154565b005b34801561045557600080fd5b50610470600480360381019061046b91906140da565b612386565b005b34801561047e57600080fd5b50610499600480360381019061049491906142e1565b612491565b005b3480156104a757600080fd5b506104b06126b0565b6040516104bd9190614735565b60405180910390f35b8181336000600360008573ffffffffffffffffffffffffffffffffffffffff1673ffffffffffffffffffffffffffffffffffffffff168152602001908152602001600020600084815260200190815260200160002060008373ffffffffffffffffffffffffffffffffffffffff1673ffffffffffffffffffffffffffffffffffffffff1681526020019081526020016000206040518060800160405290816000820160009054906101000a900473ffffffffffffffffffffffffffffffffffffffff1673ffffffffffffffffffffffffffffffffffffffff1673ffffffffffffffffffffffffffffffffffffffff16815260200160018201548152602001600282015481526020016003820154815250509050600081602001511180156105f757506105f06126d6565b8160600151115b610636576040517f08c379a000000000000000000000000000000000000000000000000000000000815260040161062d90614aca565b60405180910390fd5b600360008773ffffffffffffffffffffffffffffffffffffffff1673ffffffffffffffffffffffffffffffffffffffff168152602001908152602001600020600086815260200190815260200160002060003373ffffffffffffffffffffffffffffffffffffffff1673ffffffffffffffffffffffffffffffffffffffff168152602001908152602001600020600080820160006101000a81549073ffffffffffffffffffffffffffffffffffffffff0219169055600182016000905560028201600090556003820160009055505060046000868152602001908152602001600020600080820160006101000a81549073ffffffffffffffffffffffffffffffffffffffff0219169055600182016000905560028201600090556003820160006101000a81549073ffffffffffffffffffffffffffffffffffffffff021916905550508573ffffffffffffffffffffffffffffffffffffffff163373ffffffffffffffffffffffffffffffffffffffff167fc6e24dcedb16cc237925b586889d0a38102c719734d6cc56acb89b013099b3a7876040516107d69190614b7c565b60405180910390a3505050505050565b8282826000600260008573ffffffffffffffffffffffffffffffffffffffff1673ffffffffffffffffffffffffffffffffffffffff168152602001908152602001600020600084815260200190815260200160002060008373ffffffffffffffffffffffffffffffffffffffff1673ffffffffffffffffffffffffffffffffffffffff1681526020019081526020016000206040518060600160405290816000820154815260200160018201548152602001600282015481525050905060008160000151116108ea576040517f08c379a00000000000000000000000000000000000000000000000000000000081526004016108e190614b0a565b60405180910390fd5b8686866000600260008573ffffffffffffffffffffffffffffffffffffffff1673ffffffffffffffffffffffffffffffffffffffff168152602001908152602001600020600084815260200190815260200160002060008373ffffffffffffffffffffffffffffffffffffffff1673ffffffffffffffffffffffffffffffffffffffff168152602001908152602001600020604051806060016040529081600082015481526020016001820154815260200160028201548152505090506109b784848484600001516126de565b80604001516109c46126d6565b1015610a05576040517f08c379a00000000000000000000000000000000000000000000000000000000081526004016109fc90614a8a565b60405180910390fd5b610a108b8b8b612a22565b5050505050505050505050565b60055481565b600760009054906101000a900473ffffffffffffffffffffffffffffffffffffffff1681565b60046020528060005260406000206000915090508060000160009054906101000a900473ffffffffffffffffffffffffffffffffffffffff16908060010154908060020154908060030160009054906101000a900473ffffffffffffffffffffffffffffffffffffffff16905084565b8282826000600360008573ffffffffffffffffffffffffffffffffffffffff1673ffffffffffffffffffffffffffffffffffffffff168152602001908152602001600020600084815260200190815260200160002060008373ffffffffffffffffffffffffffffffffffffffff1673ffffffffffffffffffffffffffffffffffffffff1681526020019081526020016000206040518060800160405290816000820160009054906101000a900473ffffffffffffffffffffffffffffffffffffffff1673ffffffffffffffffffffffffffffffffffffffff1673ffffffffffffffffffffffffffffffffffffffff1681526020016001820154815260200160028201548152602001600382015481525050905060008160200151118015610bea5750610be36126d6565b8160600151115b610c29576040517f08c379a0000000000000000000000000000000000000000000000000000000008152600401610c2090614aca565b60405180910390fd5b610c34878787613270565b50505050505050565b8585336000600360008573ffffffffffffffffffffffffffffffffffffffff1673ffffffffffffffffffffffffffffffffffffffff168152602001908152602001600020600084815260200190815260200160002060008373ffffffffffffffffffffffffffffffffffffffff1673ffffffffffffffffffffffffffffffffffffffff1681526020019081526020016000206040518060800160405290816000820160009054906101000a900473ffffffffffffffffffffffffffffffffffffffff1673ffffffffffffffffffffffffffffffffffffffff1673ffffffffffffffffffffffffffffffffffffffff16815260200160018201548152602001600282015481526020016003820154815250509050600081602001511480610d6e5750610d666126d6565b816060015111155b610dad576040517f08c379a0000000000000000000000000000000000000000000000000000000008152600401610da4906149ea565b60405180910390fd5b8973ffffffffffffffffffffffffffffffffffffffff166301ffc9a76380ac58cd60e01b6040518263ffffffff1660e01b8152600401610ded9190614885565b60206040518083038186803b158015610e0557600080fd5b505afa158015610e19573d6000803e3d6000fd5b505050506040513d601f19601f82011682018060405250810190610e3d91906143af565b80610ed457508973ffffffffffffffffffffffffffffffffffffffff166301ffc9a763d9b67a2660e01b6040518263ffffffff1660e01b8152600401610e839190614885565b60206040518083038186803b158015610e9b57600080fd5b505afa158015610eaf573d6000803e3d6000fd5b505050506040513d601f19601f82011682018060405250810190610ed391906143af565b5b610f13576040517f08c379a0000000000000000000000000000000000000000000000000000000008152600401610f0a9061492a565b60405180910390fd5b610f1b6126d6565b8511610f5c576040517f08c379a0000000000000000000000000000000000000000000000000000000008152600401610f5390614aea565b60405180910390fd5b60405180608001604052808973ffffffffffffffffffffffffffffffffffffffff16815260200188815260200187815260200186815250600360008c73ffffffffffffffffffffffffffffffffffffffff1673ffffffffffffffffffffffffffffffffffffffff16815260200190815260200160002060008b815260200190815260200160002060003373ffffffffffffffffffffffffffffffffffffffff1673ffffffffffffffffffffffffffffffffffffffff16815260200190815260200160002060008201518160000160006101000a81548173ffffffffffffffffffffffffffffffffffffffff021916908373ffffffffffffffffffffffffffffffffffffffff16021790555060208201518160010155604082015181600201556060820151816003015590505060405180608001604052808973ffffffffffffffffffffffffffffffffffffffff1681526020018781526020018681526020013373ffffffffffffffffffffffffffffffffffffffff16815250600460008b815260200190815260200160002060008201518160000160006101000a81548173ffffffffffffffffffffffffffffffffffffffff021916908373ffffffffffffffffffffffffffffffffffffffff160217905550602082015181600101556040820151816002015560608201518160030160006101000a81548173ffffffffffffffffffffffffffffffffffffffff021916908373ffffffffffffffffffffffffffffffffffffffff1602179055509050508973ffffffffffffffffffffffffffffffffffffffff163373ffffffffffffffffffffffffffffffffffffffff167f89f255157c655b5155655107b77c620998e5ad4e7485d749e4e6d7ddb63e70f68b8a8c8b8b6040516111f2959493929190614bc0565b60405180910390a350505050505050505050565b60086020528060005260406000206000915090508060000160009054906101000a900461ffff16908060000160029054906101000a900473ffffffffffffffffffffffffffffffffffffffff16908060010160009054906101000a900473ffffffffffffffffffffffffffffffffffffffff16905083565b600260205282600052604060002060205281600052604060002060205280600052604060002060009250925050508060000154908060010154908060020154905083565b60006020528160005260406000206020528060005260406000206000915091509054906101000a900473ffffffffffffffffffffffffffffffffffffffff1681565b600660009054906101000a900473ffffffffffffffffffffffffffffffffffffffff1673ffffffffffffffffffffffffffffffffffffffff163373ffffffffffffffffffffffffffffffffffffffff1614611394576040517f08c379a000000000000000000000000000000000000000000000000000000000815260040161138b90614a2a565b60405180910390fd5b8061ffff166005819055507fcabead39256298cdf7d1228eee68b47bc54a2192283d8d93574da08d2d7ac303816040516113ce9190614b2a565b60405180910390a150565b8484336000600260008573ffffffffffffffffffffffffffffffffffffffff1673ffffffffffffffffffffffffffffffffffffffff168152602001908152602001600020600084815260200190815260200160002060008373ffffffffffffffffffffffffffffffffffffffff1673ffffffffffffffffffffffffffffffffffffffff1681526020019081526020016000206040518060600160405290816000820154815260200160018201548152602001600282015481525050905060008160000151146114dd576040517f08c379a00000000000000000000000000000000000000000000000000000000081526004016114d490614aaa565b60405180910390fd5b8873ffffffffffffffffffffffffffffffffffffffff166301ffc9a76380ac58cd60e01b6040518263ffffffff1660e01b815260040161151d9190614885565b60206040518083038186803b15801561153557600080fd5b505afa158015611549573d6000803e3d6000fd5b505050506040513d601f19601f8201168201806040525081019061156d91906143af565b1561173d5760008990503373ffffffffffffffffffffffffffffffffffffffff168173ffffffffffffffffffffffffffffffffffffffff16636352211e8b6040518263ffffffff1660e01b81526004016115c79190614b7c565b60206040518083038186803b1580156115df57600080fd5b505afa1580156115f3573d6000803e3d6000fd5b505050506040513d601f19601f8201168201806040525081019061161791906140ad565b73ffffffffffffffffffffffffffffffffffffffff161461166d576040517f08c379a00000000000000000000000000000000000000000000000000000000081526004016116649061498a565b60405180910390fd5b8073ffffffffffffffffffffffffffffffffffffffff1663e985e9c533306040518363ffffffff1660e01b81526004016116a892919061476b565b60206040518083038186803b1580156116c057600080fd5b505afa1580156116d4573d6000803e3d6000fd5b505050506040513d601f19601f820116820180604052508101906116f891906143af565b611737576040517f08c379a000000000000000000000000000000000000000000000000000000000815260040161172e90614a4a565b60405180910390fd5b506119af565b8873ffffffffffffffffffffffffffffffffffffffff166301ffc9a763d9b67a2660e01b6040518263ffffffff1660e01b815260040161177d9190614885565b60206040518083038186803b15801561179557600080fd5b505afa1580156117a9573d6000803e3d6000fd5b505050506040513d601f19601f820116820180604052508101906117cd91906143af565b15611973576000899050878173ffffffffffffffffffffffffffffffffffffffff1662fdd58e338c6040518363ffffffff1660e01b815260040161181292919061485c565b60206040518083038186803b15801561182a57600080fd5b505afa15801561183e573d6000803e3d6000fd5b505050506040513d601f19601f820116820180604052508101906118629190614436565b10156118a3576040517f08c379a000000000000000000000000000000000000000000000000000000000815260040161189a90614a6a565b60405180910390fd5b8073ffffffffffffffffffffffffffffffffffffffff1663e985e9c533306040518363ffffffff1660e01b81526004016118de92919061476b565b60206040518083038186803b1580156118f657600080fd5b505afa15801561190a573d6000803e3d6000fd5b505050506040513d601f19601f8201168201806040525081019061192e91906143af565b61196d576040517f08c379a000000000000000000000000000000000000000000000000000000000815260040161196490614a4a565b60405180910390fd5b506119ae565b6040517f08c379a00000000000000000000000000000000000000000000000000000000081526004016119a59061492a565b60405180910390fd5b5b60055434146119f3576040517f08c379a00000000000000000000000000000000000000000000000000000000081526004016119ea9061494a565b60405180910390fd5b6000349050604051806060016040528089815260200188815260200187815250600260008c73ffffffffffffffffffffffffffffffffffffffff1673ffffffffffffffffffffffffffffffffffffffff16815260200190815260200160002060008b815260200190815260200160002060003373ffffffffffffffffffffffffffffffffffffffff1673ffffffffffffffffffffffffffffffffffffffff168152602001908152602001600020600082015181600001556020820151816001015560408201518160020155905050600760009054906101000a900473ffffffffffffffffffffffffffffffffffffffff1673ffffffffffffffffffffffffffffffffffffffff166108fc829081150290604051600060405180830381858888f19350505050158015611b29573d6000803e3d6000fd5b508973ffffffffffffffffffffffffffffffffffffffff163373ffffffffffffffffffffffffffffffffffffffff167f66bd0bc88d76947965bc00f670f5c5b25aebab9fef6cb916d8c63a253ec392b78b8b8b8b604051611b8d9493929190614c4a565b60405180910390a350505050505050505050565b8181336000600260008573ffffffffffffffffffffffffffffffffffffffff1673ffffffffffffffffffffffffffffffffffffffff168152602001908152602001600020600084815260200190815260200160002060008373ffffffffffffffffffffffffffffffffffffffff1673ffffffffffffffffffffffffffffffffffffffff168152602001908152602001600020604051806060016040529081600082015481526020016001820154815260200160028201548152505090506000816000015111611ca5576040517f08c379a0000000000000000000000000000000000000000000000000000000008152600401611c9c90614b0a565b60405180910390fd5b611cb0868633613da3565b505050505050565b600073ffffffffffffffffffffffffffffffffffffffff168373ffffffffffffffffffffffffffffffffffffffff161415611d28576040517f08c379a0000000000000000000000000000000000000000000000000000000008152600401611d1f9061496a565b60405180910390fd5b6127108261ffff161115611d71576040517f08c379a0000000000000000000000000000000000000000000000000000000008152600401611d6890614a0a565b60405180910390fd5b60008261ffff161480611db15750600073ffffffffffffffffffffffffffffffffffffffff168173ffffffffffffffffffffffffffffffffffffffff1614155b611df0576040517f08c379a0000000000000000000000000000000000000000000000000000000008152600401611de7906149aa565b60405180910390fd5b600073ffffffffffffffffffffffffffffffffffffffff16600860008673ffffffffffffffffffffffffffffffffffffffff1673ffffffffffffffffffffffffffffffffffffffff16815260200190815260200160002060000160029054906101000a900473ffffffffffffffffffffffffffffffffffffffff1673ffffffffffffffffffffffffffffffffffffffff161415611fca5760405180606001604052808361ffff1681526020018473ffffffffffffffffffffffffffffffffffffffff1681526020018273ffffffffffffffffffffffffffffffffffffffff16815250600860008673ffffffffffffffffffffffffffffffffffffffff1673ffffffffffffffffffffffffffffffffffffffff16815260200190815260200160002060008201518160000160006101000a81548161ffff021916908361ffff16021790555060208201518160000160026101000a81548173ffffffffffffffffffffffffffffffffffffffff021916908373ffffffffffffffffffffffffffffffffffffffff16021790555060408201518160010160006101000a81548173ffffffffffffffffffffffffffffffffffffffff021916908373ffffffffffffffffffffffffffffffffffffffff1602179055509050506120b4565b6000600860008673ffffffffffffffffffffffffffffffffffffffff1673ffffffffffffffffffffffffffffffffffffffff1681526020019081526020016000209050828160000160006101000a81548161ffff021916908361ffff160217905550818160010160006101000a81548173ffffffffffffffffffffffffffffffffffffffff021916908373ffffffffffffffffffffffffffffffffffffffff160217905550838160000160026101000a81548173ffffffffffffffffffffffffffffffffffffffff021916908373ffffffffffffffffffffffffffffffffffffffff160217905550505b50505050565b600360205282600052604060002060205281600052604060002060205280600052604060002060009250925050508060000160009054906101000a900473ffffffffffffffffffffffffffffffffffffffff16908060010154908060020154908060030154905084565b60016020528160005260406000206020528060005260406000206000915091509054906101000a900461ffff1681565b6127108161ffff16111561219d576040517f08c379a000000000000000000000000000000000000000000000000000000000815260040161219490614a0a565b60405180910390fd5b6121aa83833360016126de565b600073ffffffffffffffffffffffffffffffffffffffff166000808573ffffffffffffffffffffffffffffffffffffffff1673ffffffffffffffffffffffffffffffffffffffff168152602001908152602001600020600084815260200190815260200160002060009054906101000a900473ffffffffffffffffffffffffffffffffffffffff1673ffffffffffffffffffffffffffffffffffffffff1614612288576040517f08c379a000000000000000000000000000000000000000000000000000000000815260040161227f906149ca565b60405180910390fd5b336000808573ffffffffffffffffffffffffffffffffffffffff1673ffffffffffffffffffffffffffffffffffffffff168152602001908152602001600020600084815260200190815260200160002060006101000a81548173ffffffffffffffffffffffffffffffffffffffff021916908373ffffffffffffffffffffffffffffffffffffffff16021790555080600160008573ffffffffffffffffffffffffffffffffffffffff1673ffffffffffffffffffffffffffffffffffffffff168152602001908152602001600020600084815260200190815260200160002060006101000a81548161ffff021916908361ffff160217905550505050565b600660009054906101000a900473ffffffffffffffffffffffffffffffffffffffff1673ffffffffffffffffffffffffffffffffffffffff163373ffffffffffffffffffffffffffffffffffffffff1614612416576040517f08c379a000000000000000000000000000000000000000000000000000000000815260040161240d90614a2a565b60405180910390fd5b80600760006101000a81548173ffffffffffffffffffffffffffffffffffffffff021916908373ffffffffffffffffffffffffffffffffffffffff1602179055507fe57e7c1f36cc83fade34e32351e6eee7eb9da532662b1b5da10c631e8222aca7816040516124869190614750565b60405180910390a150565b8282336000600260008573ffffffffffffffffffffffffffffffffffffffff1673ffffffffffffffffffffffffffffffffffffffff168152602001908152602001600020600084815260200190815260200160002060008373ffffffffffffffffffffffffffffffffffffffff1673ffffffffffffffffffffffffffffffffffffffff168152602001908152602001600020604051806060016040529081600082015481526020016001820154815260200160028201548152505090506000816000015111612595576040517f08c379a000000000000000000000000000000000000000000000000000000000815260040161258c90614b0a565b60405180910390fd5b6000600260008973ffffffffffffffffffffffffffffffffffffffff1673ffffffffffffffffffffffffffffffffffffffff168152602001908152602001600020600088815260200190815260200160002060003373ffffffffffffffffffffffffffffffffffffffff1673ffffffffffffffffffffffffffffffffffffffff168152602001908152602001600020905061263688883384600001546126de565b8581600101819055508773ffffffffffffffffffffffffffffffffffffffff163373ffffffffffffffffffffffffffffffffffffffff167f3c33e65e8698294810b631d476d60b44425303828da0b1f8b635231bfda12be2898960405161269e929190614b97565b60405180910390a35050505050505050565b600660009054906101000a900473ffffffffffffffffffffffffffffffffffffffff1681565b600042905090565b8373ffffffffffffffffffffffffffffffffffffffff166301ffc9a76380ac58cd60e01b6040518263ffffffff1660e01b815260040161271e9190614885565b60206040518083038186803b15801561273657600080fd5b505afa15801561274a573d6000803e3d6000fd5b505050506040513d601f19601f8201168201806040525081019061276e91906143af565b156128745760008490508273ffffffffffffffffffffffffffffffffffffffff168173ffffffffffffffffffffffffffffffffffffffff16636352211e866040518263ffffffff1660e01b81526004016127c89190614b7c565b60206040518083038186803b1580156127e057600080fd5b505afa1580156127f4573d6000803e3d6000fd5b505050506040513d601f19601f8201168201806040525081019061281891906140ad565b73ffffffffffffffffffffffffffffffffffffffff161461286e576040517f08c379a00000000000000000000000000000000000000000000000000000000081526004016128659061498a565b60405180910390fd5b50612a1c565b8373ffffffffffffffffffffffffffffffffffffffff166301ffc9a763d9b67a2660e01b6040518263ffffffff1660e01b81526004016128b49190614885565b60206040518083038186803b1580156128cc57600080fd5b505afa1580156128e0573d6000803e3d6000fd5b505050506040513d601f19601f8201168201806040525081019061290491906143af565b156129e0576000849050818173ffffffffffffffffffffffffffffffffffffffff1662fdd58e85876040518363ffffffff1660e01b815260040161294992919061485c565b60206040518083038186803b15801561296157600080fd5b505afa158015612975573d6000803e3d6000fd5b505050506040513d601f19601f820116820180604052508101906129999190614436565b10156129da576040517f08c379a00000000000000000000000000000000000000000000000000000000081526004016129d19061498a565b60405180910390fd5b50612a1b565b6040517f08c379a0000000000000000000000000000000000000000000000000000000008152600401612a129061492a565b60405180910390fd5b5b50505050565b6000600260008573ffffffffffffffffffffffffffffffffffffffff1673ffffffffffffffffffffffffffffffffffffffff168152602001908152602001600020600084815260200190815260200160002060008373ffffffffffffffffffffffffffffffffffffffff1673ffffffffffffffffffffffffffffffffffffffff168152602001908152602001600020604051806060016040529081600082015481526020016001820154815260200160028201548152505090506000612af982600001518360200151613f8090919063ffffffff16565b9050803414612b3d576040517f08c379a0000000000000000000000000000000000000000000000000000000008152600401612b349061494a565b60405180910390fd5b60003490506000612b6b6064612b5d600585613f8090919063ffffffff16565b613f9690919063ffffffff16565b9050600760009054906101000a900473ffffffffffffffffffffffffffffffffffffffff1673ffffffffffffffffffffffffffffffffffffffff166108fc829081150290604051600060405180830381858888f19350505050158015612bd5573d6000803e3d6000fd5b5060008060008973ffffffffffffffffffffffffffffffffffffffff1673ffffffffffffffffffffffffffffffffffffffff168152602001908152602001600020600088815260200190815260200160002060009054906101000a900473ffffffffffffffffffffffffffffffffffffffff1690506000600160008a73ffffffffffffffffffffffffffffffffffffffff1673ffffffffffffffffffffffffffffffffffffffff168152602001908152602001600020600089815260200190815260200160002060009054906101000a900461ffff169050600073ffffffffffffffffffffffffffffffffffffffff168273ffffffffffffffffffffffffffffffffffffffff1614158015612cef575060008161ffff1614155b15612d96576000612d326064612d248461ffff16612d16888a613fac90919063ffffffff16565b613f8090919063ffffffff16565b613f9690919063ffffffff16565b90508273ffffffffffffffffffffffffffffffffffffffff166108fc829081150290604051600060405180830381858888f19350505050158015612d7a573d6000803e3d6000fd5b50612d8e8185613fc290919063ffffffff16565b935050612f34565b600860008a73ffffffffffffffffffffffffffffffffffffffff1673ffffffffffffffffffffffffffffffffffffffff16815260200190815260200160002060010160009054906101000a900473ffffffffffffffffffffffffffffffffffffffff169150600860008a73ffffffffffffffffffffffffffffffffffffffff1673ffffffffffffffffffffffffffffffffffffffff16815260200190815260200160002060000160009054906101000a900461ffff169050600073ffffffffffffffffffffffffffffffffffffffff168273ffffffffffffffffffffffffffffffffffffffff1614158015612e90575060008161ffff1614155b15612f33576000612ed36064612ec58461ffff16612eb7888a613fac90919063ffffffff16565b613f8090919063ffffffff16565b613f9690919063ffffffff16565b90508273ffffffffffffffffffffffffffffffffffffffff166108fc829081150290604051600060405180830381858888f19350505050158015612f1b573d6000803e3d6000fd5b50612f2f8185613fc290919063ffffffff16565b9350505b5b6000612f498486613fac90919063ffffffff16565b90508773ffffffffffffffffffffffffffffffffffffffff166108fc829081150290604051600060405180830381858888f19350505050158015612f91573d6000803e3d6000fd5b508973ffffffffffffffffffffffffffffffffffffffff166301ffc9a76380ac58cd60e01b6040518263ffffffff1660e01b8152600401612fd29190614885565b60206040518083038186803b158015612fea57600080fd5b505afa158015612ffe573d6000803e3d6000fd5b505050506040513d601f19601f8201168201806040525081019061302291906143af565b1561309b578973ffffffffffffffffffffffffffffffffffffffff166342842e0e89338c6040518463ffffffff1660e01b8152600401613064939291906147cb565b600060405180830381600087803b15801561307e57600080fd5b505af1158015613092573d6000803e3d6000fd5b50505050613122565b8973ffffffffffffffffffffffffffffffffffffffff1663f242432a89338c8b60000151604051806020016040528060008152506040518663ffffffff1660e01b81526004016130ef959493929190614802565b600060405180830381600087803b15801561310957600080fd5b505af115801561311d573d6000803e3d6000fd5b505050505b8973ffffffffffffffffffffffffffffffffffffffff163373ffffffffffffffffffffffffffffffffffffffff168973ffffffffffffffffffffffffffffffffffffffff167f57d8d9cd489eb6f4aa398aa92b49d164d28fde9e7000b5c186bf1b3647a9ebb78c8b600001516131a58d600001518d613f9690919063ffffffff16565b6040516131b493929190614c13565b60405180910390a4600260008b73ffffffffffffffffffffffffffffffffffffffff1673ffffffffffffffffffffffffffffffffffffffff16815260200190815260200160002060008a815260200190815260200160002060008973ffffffffffffffffffffffffffffffffffffffff1673ffffffffffffffffffffffffffffffffffffffff16815260200190815260200160002060008082016000905560018201600090556002820160009055505050505050505050505050565b6000600360008573ffffffffffffffffffffffffffffffffffffffff1673ffffffffffffffffffffffffffffffffffffffff168152602001908152602001600020600084815260200190815260200160002060008373ffffffffffffffffffffffffffffffffffffffff1673ffffffffffffffffffffffffffffffffffffffff1681526020019081526020016000206040518060800160405290816000820160009054906101000a900473ffffffffffffffffffffffffffffffffffffffff1673ffffffffffffffffffffffffffffffffffffffff1673ffffffffffffffffffffffffffffffffffffffff1681526020016001820154815260200160028201548152602001600382015481525050905061339084843384602001516126de565b60006133ad82602001518360400151613f8090919063ffffffff16565b905060006133d860646133ca600585613f8090919063ffffffff16565b613f9690919063ffffffff16565b90506000836000015173ffffffffffffffffffffffffffffffffffffffff166323b872dd86600760009054906101000a900473ffffffffffffffffffffffffffffffffffffffff16856040518463ffffffff1660e01b815260040161343f93929190614794565b602060405180830381600087803b15801561345957600080fd5b505af115801561346d573d6000803e3d6000fd5b505050506040513d601f19601f8201168201806040525081019061349191906143af565b5060008060008973ffffffffffffffffffffffffffffffffffffffff1673ffffffffffffffffffffffffffffffffffffffff168152602001908152602001600020600088815260200190815260200160002060009054906101000a900473ffffffffffffffffffffffffffffffffffffffff1690506000600160008a73ffffffffffffffffffffffffffffffffffffffff1673ffffffffffffffffffffffffffffffffffffffff168152602001908152602001600020600089815260200190815260200160002060009054906101000a900461ffff169050600073ffffffffffffffffffffffffffffffffffffffff168273ffffffffffffffffffffffffffffffffffffffff16141580156135ab575060008161ffff1614155b1561369c576135ec60646135de8361ffff166135d0888a613fac90919063ffffffff16565b613f8090919063ffffffff16565b613f9690919063ffffffff16565b9250856000015173ffffffffffffffffffffffffffffffffffffffff166323b872dd8884866040518463ffffffff1660e01b815260040161362f939291906147cb565b602060405180830381600087803b15801561364957600080fd5b505af115801561365d573d6000803e3d6000fd5b505050506040513d601f19601f8201168201806040525081019061368191906143af565b506136958385613fc290919063ffffffff16565b9350613884565b600860008a73ffffffffffffffffffffffffffffffffffffffff1673ffffffffffffffffffffffffffffffffffffffff16815260200190815260200160002060010160009054906101000a900473ffffffffffffffffffffffffffffffffffffffff169150600860008a73ffffffffffffffffffffffffffffffffffffffff1673ffffffffffffffffffffffffffffffffffffffff16815260200190815260200160002060000160009054906101000a900461ffff169050600073ffffffffffffffffffffffffffffffffffffffff168273ffffffffffffffffffffffffffffffffffffffff1614158015613796575060008161ffff1614155b15613883576137d760646137c98361ffff166137bb888a613fac90919063ffffffff16565b613f8090919063ffffffff16565b613f9690919063ffffffff16565b9250856000015173ffffffffffffffffffffffffffffffffffffffff166323b872dd8884866040518463ffffffff1660e01b815260040161381a939291906147cb565b602060405180830381600087803b15801561383457600080fd5b505af1158015613848573d6000803e3d6000fd5b505050506040513d601f19601f8201168201806040525081019061386c91906143af565b506138808385613fc290919063ffffffff16565b93505b5b60006138998587613fac90919063ffffffff16565b9050866000015173ffffffffffffffffffffffffffffffffffffffff166323b872dd8933846040518463ffffffff1660e01b81526004016138dc939291906147cb565b602060405180830381600087803b1580156138f657600080fd5b505af115801561390a573d6000803e3d6000fd5b505050506040513d601f19601f8201168201806040525081019061392e91906143af565b508973ffffffffffffffffffffffffffffffffffffffff166301ffc9a76380ac58cd60e01b6040518263ffffffff1660e01b815260040161396f9190614885565b60206040518083038186803b15801561398757600080fd5b505afa15801561399b573d6000803e3d6000fd5b505050506040513d601f19601f820116820180604052508101906139bf91906143af565b15613a38578973ffffffffffffffffffffffffffffffffffffffff166342842e0e338a8c6040518463ffffffff1660e01b8152600401613a01939291906147cb565b600060405180830381600087803b158015613a1b57600080fd5b505af1158015613a2f573d6000803e3d6000fd5b50505050613abf565b8973ffffffffffffffffffffffffffffffffffffffff1663f242432a338a8c8b60200151604051806020016040528060008152506040518663ffffffff1660e01b8152600401613a8c959493929190614802565b600060405180830381600087803b158015613aa657600080fd5b505af1158015613aba573d6000803e3d6000fd5b505050505b8973ffffffffffffffffffffffffffffffffffffffff168873ffffffffffffffffffffffffffffffffffffffff163373ffffffffffffffffffffffffffffffffffffffff167f57d8d9cd489eb6f4aa398aa92b49d164d28fde9e7000b5c186bf1b3647a9ebb78c8b602001518c60400151604051613b3f93929190614c13565b60405180910390a48973ffffffffffffffffffffffffffffffffffffffff168873ffffffffffffffffffffffffffffffffffffffff167fc6e24dcedb16cc237925b586889d0a38102c719734d6cc56acb89b013099b3a78b604051613ba49190614b7c565b60405180910390a3600260008b73ffffffffffffffffffffffffffffffffffffffff1673ffffffffffffffffffffffffffffffffffffffff16815260200190815260200160002060008a815260200190815260200160002060003373ffffffffffffffffffffffffffffffffffffffff1673ffffffffffffffffffffffffffffffffffffffff168152602001908152602001600020600080820160009055600182016000905560028201600090555050600360008b73ffffffffffffffffffffffffffffffffffffffff1673ffffffffffffffffffffffffffffffffffffffff16815260200190815260200160002060008a815260200190815260200160002060008973ffffffffffffffffffffffffffffffffffffffff1673ffffffffffffffffffffffffffffffffffffffff168152602001908152602001600020600080820160006101000a81549073ffffffffffffffffffffffffffffffffffffffff02191690556001820160009055600282016000905560038201600090555050600460008a8152602001908152602001600020600080820160006101000a81549073ffffffffffffffffffffffffffffffffffffffff0219169055600182016000905560028201600090556003820160006101000a81549073ffffffffffffffffffffffffffffffffffffffff0219169055505050505050505050505050565b6000600260008573ffffffffffffffffffffffffffffffffffffffff1673ffffffffffffffffffffffffffffffffffffffff168152602001908152602001600020600084815260200190815260200160002060008373ffffffffffffffffffffffffffffffffffffffff1673ffffffffffffffffffffffffffffffffffffffff16815260200190815260200160002060405180606001604052908160008201548152602001600182015481526020016002820154815250509050613e6d84848484600001516126de565b600260008573ffffffffffffffffffffffffffffffffffffffff1673ffffffffffffffffffffffffffffffffffffffff168152602001908152602001600020600084815260200190815260200160002060008373ffffffffffffffffffffffffffffffffffffffff1673ffffffffffffffffffffffffffffffffffffffff1681526020019081526020016000206000808201600090556001820160009055600282016000905550508373ffffffffffffffffffffffffffffffffffffffff168273ffffffffffffffffffffffffffffffffffffffff167f9ba1a3cb55ce8d63d072a886f94d2a744f50cddf82128e897d0661f5ec62315885604051613f729190614b7c565b60405180910390a350505050565b60008183613f8e9190614d43565b905092915050565b60008183613fa49190614d12565b905092915050565b60008183613fba9190614d9d565b905092915050565b60008183613fd09190614cbc565b905092915050565b600081359050613fe7816151f6565b92915050565b600081519050613ffc816151f6565b92915050565b6000813590506140118161520d565b92915050565b60008151905061402681615224565b92915050565b60008135905061403b8161523b565b92915050565b60008135905061405081615252565b92915050565b60008135905061406581615269565b92915050565b60008151905061407a81615269565b92915050565b60006020828403121561409657614095614f50565b5b60006140a484828501613fd8565b91505092915050565b6000602082840312156140c3576140c2614f50565b5b60006140d184828501613fed565b91505092915050565b6000602082840312156140f0576140ef614f50565b5b60006140fe84828501614002565b91505092915050565b6000806000806080858703121561412157614120614f50565b5b600061412f87828801613fd8565b945050602061414087828801613fd8565b935050604061415187828801614041565b925050606061416287828801613fd8565b91505092959194509250565b6000806040838503121561418557614184614f50565b5b600061419385828601613fd8565b92505060206141a485828601614056565b9150509250929050565b6000806000606084860312156141c7576141c6614f50565b5b60006141d586828701613fd8565b93505060206141e686828701614056565b92505060406141f786828701613fd8565b9150509250925092565b60008060008060008060c0878903121561421e5761421d614f50565b5b600061422c89828a01613fd8565b965050602061423d89828a01614056565b955050604061424e89828a0161402c565b945050606061425f89828a01614056565b935050608061427089828a01614056565b92505060a061428189828a01614056565b9150509295509295509295565b6000806000606084860312156142a7576142a6614f50565b5b60006142b586828701613fd8565b93505060206142c686828701614056565b92505060406142d786828701614041565b9150509250925092565b6000806000606084860312156142fa576142f9614f50565b5b600061430886828701613fd8565b935050602061431986828701614056565b925050604061432a86828701614056565b9150509250925092565b600080600080600060a086880312156143505761434f614f50565b5b600061435e88828901613fd8565b955050602061436f88828901614056565b945050604061438088828901614056565b935050606061439188828901614056565b92505060806143a288828901614056565b9150509295509295909350565b6000602082840312156143c5576143c4614f50565b5b60006143d384828501614017565b91505092915050565b6000602082840312156143f2576143f1614f50565b5b600061440084828501614041565b91505092915050565b60006020828403121561441f5761441e614f50565b5b600061442d84828501614056565b91505092915050565b60006020828403121561444c5761444b614f50565b5b600061445a8482850161406b565b91505092915050565b61446c81614e77565b82525050565b61447b81614de3565b82525050565b61448a81614dd1565b82525050565b61449981614e01565b82525050565b60006144aa82614c8f565b6144b48185614c9a565b93506144c4818560208601614ebf565b6144cd81614f55565b840191505092915050565b6144e181614e89565b82525050565b60006144f4601383614cab565b91506144ff82614f66565b602082019050919050565b6000614517601d83614cab565b915061452282614f8f565b602082019050919050565b600061453a601783614cab565b915061454582614fb8565b602082019050919050565b600061455d600f83614cab565b915061456882614fe1565b602082019050919050565b6000614580601d83614cab565b915061458b8261500a565b602082019050919050565b60006145a3601383614cab565b91506145ae82615033565b602082019050919050565b60006145c6601583614cab565b91506145d18261505c565b602082019050919050565b60006145e9600f83614cab565b91506145f482615085565b602082019050919050565b600061460c601183614cab565b9150614617826150ae565b602082019050919050565b600061462f601183614cab565b915061463a826150d7565b602082019050919050565b6000614652601583614cab565b915061465d82615100565b602082019050919050565b6000614675601083614cab565b915061468082615129565b602082019050919050565b6000614698600e83614cab565b91506146a382615152565b602082019050919050565b60006146bb601b83614cab565b91506146c68261517b565b602082019050919050565b60006146de601283614cab565b91506146e9826151a4565b602082019050919050565b6000614701600f83614cab565b915061470c826151cd565b602082019050919050565b61472081614e3f565b82525050565b61472f81614e6d565b82525050565b600060208201905061474a6000830184614481565b92915050565b60006020820190506147656000830184614472565b92915050565b60006040820190506147806000830185614481565b61478d6020830184614481565b9392505050565b60006060820190506147a96000830186614481565b6147b66020830185614463565b6147c36040830184614726565b949350505050565b60006060820190506147e06000830186614481565b6147ed6020830185614481565b6147fa6040830184614726565b949350505050565b600060a0820190506148176000830188614481565b6148246020830187614481565b6148316040830186614726565b61483e6060830185614726565b8181036080830152614850818461449f565b90509695505050505050565b60006040820190506148716000830185614481565b61487e6020830184614726565b9392505050565b600060208201905061489a6000830184614490565b92915050565b60006080820190506148b560008301876144d8565b6148c26020830186614726565b6148cf6040830185614726565b6148dc6060830184614481565b95945050505050565b60006080820190506148fa60008301876144d8565b6149076020830186614726565b6149146040830185614726565b6149216060830184614726565b95945050505050565b60006020820190508181036000830152614943816144e7565b9050919050565b600060208201905081810360008301526149638161450a565b9050919050565b600060208201905081810360008301526149838161452d565b9050919050565b600060208201905081810360008301526149a381614550565b9050919050565b600060208201905081810360008301526149c381614573565b9050919050565b600060208201905081810360008301526149e381614596565b9050919050565b60006020820190508181036000830152614a03816145b9565b9050919050565b60006020820190508181036000830152614a23816145dc565b9050919050565b60006020820190508181036000830152614a43816145ff565b9050919050565b60006020820190508181036000830152614a6381614622565b9050919050565b60006020820190508181036000830152614a8381614645565b9050919050565b60006020820190508181036000830152614aa381614668565b9050919050565b60006020820190508181036000830152614ac38161468b565b9050919050565b60006020820190508181036000830152614ae3816146ae565b9050919050565b60006020820190508181036000830152614b03816146d1565b9050919050565b60006020820190508181036000830152614b23816146f4565b9050919050565b6000602082019050614b3f6000830184614717565b92915050565b6000606082019050614b5a6000830186614717565b614b676020830185614481565b614b746040830184614481565b949350505050565b6000602082019050614b916000830184614726565b92915050565b6000604082019050614bac6000830185614726565b614bb96020830184614726565b9392505050565b600060a082019050614bd56000830188614726565b614be26020830187614726565b614bef6040830186614481565b614bfc6060830185614726565b614c096080830184614726565b9695505050505050565b6000606082019050614c286000830186614726565b614c356020830185614726565b614c426040830184614726565b949350505050565b6000608082019050614c5f6000830187614726565b614c6c6020830186614726565b614c796040830185614726565b614c866060830184614726565b95945050505050565b600081519050919050565b600082825260208201905092915050565b600082825260208201905092915050565b6000614cc782614e6d565b9150614cd283614e6d565b9250827fffffffffffffffffffffffffffffffffffffffffffffffffffffffffffffffff03821115614d0757614d06614ef2565b5b828201905092915050565b6000614d1d82614e6d565b9150614d2883614e6d565b925082614d3857614d37614f21565b5b828204905092915050565b6000614d4e82614e6d565b9150614d5983614e6d565b9250817fffffffffffffffffffffffffffffffffffffffffffffffffffffffffffffffff0483118215151615614d9257614d91614ef2565b5b828202905092915050565b6000614da882614e6d565b9150614db383614e6d565b925082821015614dc657614dc5614ef2565b5b828203905092915050565b6000614ddc82614e4d565b9050919050565b6000614dee82614e4d565b9050919050565b60008115159050919050565b60007fffffffff0000000000000000000000000000000000000000000000000000000082169050919050565b6000614e3882614dd1565b9050919050565b600061ffff82169050919050565b600073ffffffffffffffffffffffffffffffffffffffff82169050919050565b6000819050919050565b6000614e8282614e9b565b9050919050565b6000614e9482614e9b565b9050919050565b6000614ea682614ead565b9050919050565b6000614eb882614e4d565b9050919050565b60005b83811015614edd578082015181840152602081019050614ec2565b83811115614eec576000848401525b50505050565b7f4e487b7100000000000000000000000000000000000000000000000000000000600052601160045260246000fd5b7f4e487b7100000000000000000000000000000000000000000000000000000000600052601260045260246000fd5b600080fd5b6000601f19601f8301169050919050565b7f696e76616c6964206e6674206164647265737300000000000000000000000000600082015250565b7f706c6561736520656e746572207468652061736b696e67207072696365000000600082015250565b7f696e76616c69642063726561746f722061646472657373000000000000000000600082015250565b7f6e6f74206f776e696e67206974656d0000000000000000000000000000000000600082015250565b7f696e76616c69642066656520726563697069656e742061646472657373000000600082015250565b7f726f79616c747920616c72656164792073657400000000000000000000000000600082015250565b7f6f6666657220616c726561647920637265617465640000000000000000000000600082015250565b7f696e76616c696420726f79616c74790000000000000000000000000000000000600082015250565b7f596f7520617265206e6f74204f776e6572000000000000000000000000000000600082015250565b7f6974656d206e6f7420617070726f766564000000000000000000000000000000600082015250565b7f6d75737420686f6c6420656e6f756768206e6674730000000000000000000000600082015250565b7f6974656d206e6f742062757961626c6500000000000000000000000000000000600082015250565b7f616c7265616479206c6973746564000000000000000000000000000000000000600082015250565b7f6f66666572206e6f7420657869737473206f7220657870697265640000000000600082015250565b7f696e76616c69642065787069726174696f6e0000000000000000000000000000600082015250565b7f6e6f74206c6973746564206974656d0000000000000000000000000000000000600082015250565b6151ff81614dd1565b811461520a57600080fd5b50565b61521681614de3565b811461522157600080fd5b50565b61522d81614df5565b811461523857600080fd5b50565b61524481614e2d565b811461524f57600080fd5b50565b61525b81614e3f565b811461526657600080fd5b50565b61527281614e6d565b811461527d57600080fd5b5056fea26469706673582212207058187255e4ea1323712659ecb88cca1599af4a3d96ec9b311e14ee7b2a369664736f6c63430008070033",
  "linkReferences": {},
  "deployedLinkReferences": {}
}